{
  "contractName": "CryptoState",
  "abi": [
    {
      "inputs": [],
      "stateMutability": "nonpayable",
      "type": "constructor"
    },
    {
      "anonymous": false,
      "inputs": [
        {
          "indexed": true,
          "internalType": "address",
          "name": "owner",
          "type": "address"
        },
        {
          "indexed": true,
          "internalType": "address",
          "name": "approved",
          "type": "address"
        },
        {
          "indexed": true,
          "internalType": "uint256",
          "name": "tokenId",
          "type": "uint256"
        }
      ],
      "name": "Approval",
      "type": "event"
    },
    {
      "anonymous": false,
      "inputs": [
        {
          "indexed": true,
          "internalType": "address",
          "name": "owner",
          "type": "address"
        },
        {
          "indexed": true,
          "internalType": "address",
          "name": "operator",
          "type": "address"
        },
        {
          "indexed": false,
          "internalType": "bool",
          "name": "approved",
          "type": "bool"
        }
      ],
      "name": "ApprovalForAll",
      "type": "event"
    },
    {
      "anonymous": false,
      "inputs": [
        {
          "indexed": false,
          "internalType": "uint256",
          "name": "tokenId",
          "type": "uint256"
        },
        {
          "indexed": false,
          "internalType": "string",
          "name": "tokenName",
          "type": "string"
        },
        {
          "indexed": false,
          "internalType": "string",
          "name": "tokenURI",
          "type": "string"
        },
        {
          "indexed": false,
          "internalType": "address payable",
          "name": "mintedBy",
          "type": "address"
        },
        {
          "indexed": false,
          "internalType": "address payable",
          "name": "currentowner",
          "type": "address"
        },
        {
          "indexed": false,
          "internalType": "address payable",
          "name": "oldowenr",
          "type": "address"
        },
        {
          "indexed": false,
          "internalType": "uint256",
          "name": "price",
          "type": "uint256"
        }
      ],
      "name": "CryptoStateItemCreate",
      "type": "event"
    },
    {
      "anonymous": false,
      "inputs": [
        {
          "indexed": true,
          "internalType": "address",
          "name": "previousOwner",
          "type": "address"
        },
        {
          "indexed": true,
          "internalType": "address",
          "name": "newOwner",
          "type": "address"
        }
      ],
      "name": "OwnershipTransferred",
      "type": "event"
    },
    {
      "anonymous": false,
      "inputs": [
        {
          "indexed": true,
          "internalType": "address",
          "name": "from",
          "type": "address"
        },
        {
          "indexed": true,
          "internalType": "address",
          "name": "to",
          "type": "address"
        },
        {
          "indexed": true,
          "internalType": "uint256",
          "name": "tokenId",
          "type": "uint256"
        }
      ],
      "name": "Transfer",
      "type": "event"
    },
    {
      "inputs": [
        {
          "internalType": "uint256",
          "name": "",
          "type": "uint256"
        }
      ],
      "name": "allCryptostate",
      "outputs": [
        {
          "internalType": "uint256",
          "name": "tokenId",
          "type": "uint256"
        },
        {
          "internalType": "string",
          "name": "tokenName",
          "type": "string"
        },
        {
          "internalType": "string",
          "name": "tokenURI",
          "type": "string"
        },
        {
          "internalType": "address payable",
          "name": "mintedBy",
          "type": "address"
        },
        {
          "internalType": "address payable",
          "name": "currentOwner",
          "type": "address"
        },
        {
          "internalType": "address payable",
          "name": "perviousOwner",
          "type": "address"
        },
        {
          "internalType": "uint256",
          "name": "price",
          "type": "uint256"
        },
        {
          "internalType": "bool",
          "name": "forSale",
          "type": "bool"
        },
        {
          "internalType": "string",
          "name": "placeAddress",
          "type": "string"
        }
      ],
      "stateMutability": "view",
      "type": "function",
      "constant": true
    },
    {
      "inputs": [
        {
          "internalType": "address",
          "name": "to",
          "type": "address"
        },
        {
          "internalType": "uint256",
          "name": "tokenId",
          "type": "uint256"
        }
      ],
      "name": "approve",
      "outputs": [],
      "stateMutability": "nonpayable",
      "type": "function"
    },
    {
      "inputs": [
        {
          "internalType": "address",
          "name": "owner",
          "type": "address"
        }
      ],
      "name": "balanceOf",
      "outputs": [
        {
          "internalType": "uint256",
          "name": "",
          "type": "uint256"
        }
      ],
      "stateMutability": "view",
      "type": "function",
      "constant": true
    },
    {
      "inputs": [],
      "name": "collectionName",
      "outputs": [
        {
          "internalType": "string",
          "name": "",
          "type": "string"
        }
      ],
      "stateMutability": "view",
      "type": "function",
      "constant": true
    },
    {
      "inputs": [],
      "name": "collectionNameSymbol",
      "outputs": [
        {
          "internalType": "string",
          "name": "",
          "type": "string"
        }
      ],
      "stateMutability": "view",
      "type": "function",
      "constant": true
    },
    {
      "inputs": [
        {
          "internalType": "uint256",
          "name": "tokenId",
          "type": "uint256"
        }
      ],
      "name": "getApproved",
      "outputs": [
        {
          "internalType": "address",
          "name": "",
          "type": "address"
        }
      ],
      "stateMutability": "view",
      "type": "function",
      "constant": true
    },
    {
      "inputs": [
        {
          "internalType": "address",
          "name": "owner",
          "type": "address"
        },
        {
          "internalType": "address",
          "name": "operator",
          "type": "address"
        }
      ],
      "name": "isApprovedForAll",
      "outputs": [
        {
          "internalType": "bool",
          "name": "",
          "type": "bool"
        }
      ],
      "stateMutability": "view",
      "type": "function",
      "constant": true
    },
    {
      "inputs": [],
      "name": "name",
      "outputs": [
        {
          "internalType": "string",
          "name": "",
          "type": "string"
        }
      ],
      "stateMutability": "view",
      "type": "function",
      "constant": true
    },
    {
      "inputs": [],
      "name": "nameOf",
      "outputs": [
        {
          "internalType": "string",
          "name": "",
          "type": "string"
        }
      ],
      "stateMutability": "view",
      "type": "function",
      "constant": true
    },
    {
      "inputs": [],
      "name": "owner",
      "outputs": [
        {
          "internalType": "address",
          "name": "",
          "type": "address"
        }
      ],
      "stateMutability": "view",
      "type": "function",
      "constant": true
    },
    {
      "inputs": [
        {
          "internalType": "uint256",
          "name": "tokenId",
          "type": "uint256"
        }
      ],
      "name": "ownerOf",
      "outputs": [
        {
          "internalType": "address",
          "name": "",
          "type": "address"
        }
      ],
      "stateMutability": "view",
      "type": "function",
      "constant": true
    },
    {
      "inputs": [],
      "name": "renounceOwnership",
      "outputs": [],
      "stateMutability": "nonpayable",
      "type": "function"
    },
    {
      "inputs": [
        {
          "internalType": "address",
          "name": "from",
          "type": "address"
        },
        {
          "internalType": "address",
          "name": "to",
          "type": "address"
        },
        {
          "internalType": "uint256",
          "name": "tokenId",
          "type": "uint256"
        }
      ],
      "name": "safeTransferFrom",
      "outputs": [],
      "stateMutability": "nonpayable",
      "type": "function"
    },
    {
      "inputs": [
        {
          "internalType": "address",
          "name": "from",
          "type": "address"
        },
        {
          "internalType": "address",
          "name": "to",
          "type": "address"
        },
        {
          "internalType": "uint256",
          "name": "tokenId",
          "type": "uint256"
        },
        {
          "internalType": "bytes",
          "name": "_data",
          "type": "bytes"
        }
      ],
      "name": "safeTransferFrom",
      "outputs": [],
      "stateMutability": "nonpayable",
      "type": "function"
    },
    {
      "inputs": [
        {
          "internalType": "address",
          "name": "operator",
          "type": "address"
        },
        {
          "internalType": "bool",
          "name": "approved",
          "type": "bool"
        }
      ],
      "name": "setApprovalForAll",
      "outputs": [],
      "stateMutability": "nonpayable",
      "type": "function"
    },
    {
      "inputs": [
        {
          "internalType": "bytes4",
          "name": "interfaceId",
          "type": "bytes4"
        }
      ],
      "name": "supportsInterface",
      "outputs": [
        {
          "internalType": "bool",
          "name": "",
          "type": "bool"
        }
      ],
      "stateMutability": "view",
      "type": "function",
      "constant": true
    },
    {
      "inputs": [],
      "name": "symbol",
      "outputs": [
        {
          "internalType": "string",
          "name": "",
          "type": "string"
        }
      ],
      "stateMutability": "view",
      "type": "function",
      "constant": true
    },
    {
      "inputs": [
        {
          "internalType": "uint256",
          "name": "tokenId",
          "type": "uint256"
        }
      ],
      "name": "tokenURI",
      "outputs": [
        {
          "internalType": "string",
          "name": "",
          "type": "string"
        }
      ],
      "stateMutability": "view",
      "type": "function",
      "constant": true
    },
    {
      "inputs": [
        {
          "internalType": "address",
          "name": "from",
          "type": "address"
        },
        {
          "internalType": "address",
          "name": "to",
          "type": "address"
        },
        {
          "internalType": "uint256",
          "name": "tokenId",
          "type": "uint256"
        }
      ],
      "name": "transferFrom",
      "outputs": [],
      "stateMutability": "nonpayable",
      "type": "function"
    },
    {
      "inputs": [
        {
          "internalType": "address",
          "name": "newOwner",
          "type": "address"
        }
      ],
      "name": "transferOwnership",
      "outputs": [],
      "stateMutability": "nonpayable",
      "type": "function"
    },
    {
      "inputs": [],
      "name": "withdraw",
      "outputs": [],
      "stateMutability": "payable",
      "type": "function",
      "payable": true
    },
    {
      "inputs": [
        {
          "internalType": "string",
          "name": "_name",
          "type": "string"
        },
        {
          "internalType": "string",
          "name": "_tokenURI",
          "type": "string"
        },
        {
          "internalType": "uint256",
          "name": "_price",
          "type": "uint256"
        },
        {
          "internalType": "string",
          "name": "_placeAddress",
          "type": "string"
        },
        {
          "internalType": "address",
          "name": "_owner",
          "type": "address"
        },
        {
          "internalType": "bool",
          "name": "_forSell",
          "type": "bool"
        }
      ],
      "name": "mintCryptoState",
      "outputs": [],
      "stateMutability": "payable",
      "type": "function",
      "payable": true
    },
    {
      "inputs": [],
      "name": "getListingPrice",
      "outputs": [
        {
          "internalType": "uint256",
          "name": "",
          "type": "uint256"
        }
      ],
      "stateMutability": "view",
      "type": "function",
      "constant": true
    },
    {
      "inputs": [
        {
          "internalType": "uint256",
          "name": "_tokenId",
          "type": "uint256"
        }
      ],
      "name": "getTokenOwner",
      "outputs": [
        {
          "internalType": "address",
          "name": "",
          "type": "address"
        }
      ],
      "stateMutability": "view",
      "type": "function",
      "constant": true
    },
    {
      "inputs": [
        {
          "internalType": "uint256",
          "name": "_tokenId",
          "type": "uint256"
        }
      ],
      "name": "getTokenMetadata",
      "outputs": [
        {
          "internalType": "string",
          "name": "",
          "type": "string"
        }
      ],
      "stateMutability": "view",
      "type": "function",
      "constant": true
    },
    {
      "inputs": [],
      "name": "getNumberOfTokensMinted",
      "outputs": [
        {
          "internalType": "uint256",
          "name": "",
          "type": "uint256"
        }
      ],
      "stateMutability": "view",
      "type": "function",
      "constant": true
    },
    {
      "inputs": [
        {
          "internalType": "address",
          "name": "_owner",
          "type": "address"
        }
      ],
      "name": "TokenownedByaddress",
      "outputs": [
        {
          "internalType": "uint256",
          "name": "",
          "type": "uint256"
        }
      ],
      "stateMutability": "view",
      "type": "function",
      "constant": true
    },
    {
      "inputs": [
        {
          "internalType": "uint256",
          "name": "_tokenId",
          "type": "uint256"
        }
      ],
      "name": "getTokenExists",
      "outputs": [
        {
          "internalType": "bool",
          "name": "",
          "type": "bool"
        }
      ],
      "stateMutability": "view",
      "type": "function",
      "constant": true
    },
    {
      "inputs": [
        {
          "internalType": "uint256",
          "name": "_tokenId",
          "type": "uint256"
        }
      ],
      "name": "buyToken",
      "outputs": [],
      "stateMutability": "payable",
      "type": "function",
      "payable": true
    },
    {
      "inputs": [
        {
          "internalType": "uint256",
          "name": "_tokenId",
          "type": "uint256"
        },
        {
          "internalType": "uint256",
          "name": "_newPrice",
          "type": "uint256"
        }
      ],
      "name": "changeTokenPrice",
      "outputs": [],
      "stateMutability": "payable",
      "type": "function",
      "payable": true
    },
    {
      "inputs": [
        {
          "internalType": "uint256",
          "name": "_tokenId",
          "type": "uint256"
        }
      ],
      "name": "toggleForSale",
      "outputs": [],
      "stateMutability": "payable",
      "type": "function",
      "payable": true
    }
  ],
  "bytecode": "0x608060405260405180606001604052806023815260200162004fc760239139600890805190602001906200003592919062000370565b5067016345785d8a0000600c553480156200004f57600080fd5b506040518060400160405280600b81526020017f43727970746f53746174650000000000000000000000000000000000000000008152506040518060400160405280600381526020017f494e4400000000000000000000000000000000000000000000000000000000008152508160009080519060200190620000d492919062000370565b508060019080519060200190620000ed92919062000370565b50505062000110620001046200016e60201b60201c565b6200017660201b60201c565b6001600781905550620001286200023c60201b60201c565b600990805190602001906200013f92919062000370565b5062000150620002d660201b60201c565b600a90805190602001906200016792919062000370565b5062000485565b600033905090565b6000600660009054906101000a900473ffffffffffffffffffffffffffffffffffffffff16905081600660006101000a81548173ffffffffffffffffffffffffffffffffffffffff021916908373ffffffffffffffffffffffffffffffffffffffff1602179055508173ffffffffffffffffffffffffffffffffffffffff168173ffffffffffffffffffffffffffffffffffffffff167f8be0079c531659141344cd1fd0a4f28419497f9722a3daafe3b4186f6b6457e060405160405180910390a35050565b6060600080546200024d9062000420565b80601f01602080910402602001604051908101604052809291908181526020018280546200027b9062000420565b8015620002cc5780601f10620002a057610100808354040283529160200191620002cc565b820191906000526020600020905b815481529060010190602001808311620002ae57829003601f168201915b5050505050905090565b606060018054620002e79062000420565b80601f0160208091040260200160405190810160405280929190818152602001828054620003159062000420565b8015620003665780601f106200033a5761010080835404028352916020019162000366565b820191906000526020600020905b8154815290600101906020018083116200034857829003601f168201915b5050505050905090565b8280546200037e9062000420565b90600052602060002090601f016020900481019282620003a25760008555620003ee565b82601f10620003bd57805160ff1916838001178555620003ee565b82800160010185558215620003ee579182015b82811115620003ed578251825591602001919060010190620003d0565b5b509050620003fd919062000401565b5090565b5b808211156200041c57600081600090555060010162000402565b5090565b600060028204905060018216806200043957607f821691505b6020821081141562000450576200044f62000456565b5b50919050565b7f4e487b7100000000000000000000000000000000000000000000000000000000600052602260045260246000fd5b614b3280620004956000396000f3fe6080604052600436106101d85760003560e01c8063715018a611610102578063b8ec91d311610095578063e5326ab111610064578063e5326ab1146106b6578063e985e9c5146106e1578063ed5de8e81461071e578063f2fde38b1461073a576101d8565b8063b8ec91d3146105de578063c87b56dd14610609578063cc151f3a14610646578063d07dee8414610671576101d8565b8063a22cb465116100d1578063a22cb46514610533578063a32018b91461055c578063a5cd761f14610578578063b88d4fde146105b5576101d8565b8063715018a614610489578063810ff2fe146104a05780638da5cb5b146104dd57806395d89b4114610508576101d8565b80632d296bf11161017a57806362e8e8ac1161014957806362e8e8ac146103c85780636352211e146103e45780636f9507f91461042157806370a082311461044c576101d8565b80632d296bf11461033c5780633ccfd60b1461035857806342842e0e14610362578063603168011461038b576101d8565b8063095ea7b3116101b6578063095ea7b31461028257806312e85585146102ab578063142687f3146102d657806323b872dd14610313576101d8565b806301ffc9a7146101dd57806306fdde031461021a578063081812fc14610245575b600080fd5b3480156101e957600080fd5b5061020460048036038101906101ff919061379c565b610763565b6040516102119190614279565b60405180910390f35b34801561022657600080fd5b5061022f610845565b60405161023c9190614294565b60405180910390f35b34801561025157600080fd5b5061026c600480360381019061026791906138bf565b6108d7565b6040516102799190614212565b60405180910390f35b34801561028e57600080fd5b506102a960048036038101906102a49190613760565b61095c565b005b3480156102b757600080fd5b506102c0610a74565b6040516102cd9190614596565b60405180910390f35b3480156102e257600080fd5b506102fd60048036038101906102f891906138bf565b610a7e565b60405161030a9190614279565b60405180910390f35b34801561031f57600080fd5b5061033a6004803603810190610335919061365a565b610a95565b005b610356600480360381019061035191906138bf565b610af5565b005b6103606111d5565b005b34801561036e57600080fd5b506103896004803603810190610384919061365a565b6112a7565b005b34801561039757600080fd5b506103b260048036038101906103ad91906138bf565b6112c7565b6040516103bf9190614294565b60405180910390f35b6103e260048036038101906103dd91906138e8565b6112df565b005b3480156103f057600080fd5b5061040b600480360381019061040691906138bf565b611393565b6040516104189190614212565b60405180910390f35b34801561042d57600080fd5b50610436611445565b6040516104439190614294565b60405180910390f35b34801561045857600080fd5b50610473600480360381019061046e91906135f5565b6114d3565b6040516104809190614596565b60405180910390f35b34801561049557600080fd5b5061049e61158b565b005b3480156104ac57600080fd5b506104c760048036038101906104c291906135f5565b611613565b6040516104d49190614596565b60405180910390f35b3480156104e957600080fd5b506104f261162a565b6040516104ff9190614212565b60405180910390f35b34801561051457600080fd5b5061051d611654565b60405161052a9190614294565b60405180910390f35b34801561053f57600080fd5b5061055a60048036038101906105559190613724565b6116e6565b005b610576600480360381019061057191906138bf565b611867565b005b34801561058457600080fd5b5061059f600480360381019061059a91906138bf565b611db1565b6040516105ac9190614212565b60405180910390f35b3480156105c157600080fd5b506105dc60048036038101906105d791906136a9565b611dc8565b005b3480156105ea57600080fd5b506105f3611e2a565b6040516106009190614294565b60405180910390f35b34801561061557600080fd5b50610630600480360381019061062b91906138bf565b611eb8565b60405161063d9190614294565b60405180910390f35b34801561065257600080fd5b5061065b611f5f565b6040516106689190614596565b60405180910390f35b34801561067d57600080fd5b50610698600480360381019061069391906138bf565b611f75565b6040516106ad9998979695949392919061462e565b60405180910390f35b3480156106c257600080fd5b506106cb6121c8565b6040516106d89190614294565b60405180910390f35b3480156106ed57600080fd5b506107086004803603810190610703919061361e565b612256565b6040516107159190614279565b60405180910390f35b610738600480360381019061073391906137ee565b6122ea565b005b34801561074657600080fd5b50610761600480360381019061075c91906135f5565b6127c9565b005b60007f80ac58cd000000000000000000000000000000000000000000000000000000007bffffffffffffffffffffffffffffffffffffffffffffffffffffffff1916827bffffffffffffffffffffffffffffffffffffffffffffffffffffffff1916148061082e57507f5b5e139f000000000000000000000000000000000000000000000000000000007bffffffffffffffffffffffffffffffffffffffffffffffffffffffff1916827bffffffffffffffffffffffffffffffffffffffffffffffffffffffff1916145b8061083e575061083d826128c1565b5b9050919050565b60606000805461085490614927565b80601f016020809104026020016040519081016040528092919081815260200182805461088090614927565b80156108cd5780601f106108a2576101008083540402835291602001916108cd565b820191906000526020600020905b8154815290600101906020018083116108b057829003601f168201915b5050505050905090565b60006108e28261292b565b610921576040517f08c379a000000000000000000000000000000000000000000000000000000000815260040161091890614436565b60405180910390fd5b6004600083815260200190815260200160002060009054906101000a900473ffffffffffffffffffffffffffffffffffffffff169050919050565b600061096782611393565b90508073ffffffffffffffffffffffffffffffffffffffff168373ffffffffffffffffffffffffffffffffffffffff1614156109d8576040517f08c379a00000000000000000000000000000000000000000000000000000000081526004016109cf906144b6565b60405180910390fd5b8073ffffffffffffffffffffffffffffffffffffffff166109f7612997565b73ffffffffffffffffffffffffffffffffffffffff161480610a265750610a2581610a20612997565b612256565b5b610a65576040517f08c379a0000000000000000000000000000000000000000000000000000000008152600401610a5c90614396565b60405180910390fd5b610a6f838361299f565b505050565b6000600c54905090565b600080610a8a8361292b565b905080915050919050565b610aa6610aa0612997565b82612a58565b610ae5576040517f08c379a0000000000000000000000000000000000000000000000000000000008152600401610adc90614516565b60405180910390fd5b610af0838383612b36565b505050565b600073ffffffffffffffffffffffffffffffffffffffff163373ffffffffffffffffffffffffffffffffffffffff161415610b65576040517f08c379a0000000000000000000000000000000000000000000000000000000008152600401610b5c90614416565b60405180910390fd5b610b6e8161292b565b610bad576040517f08c379a0000000000000000000000000000000000000000000000000000000008152600401610ba490614576565b60405180910390fd5b6000610bb882611393565b90508073ffffffffffffffffffffffffffffffffffffffff163373ffffffffffffffffffffffffffffffffffffffff161415610c29576040517f08c379a0000000000000000000000000000000000000000000000000000000008152600401610c20906142b6565b60405180910390fd5b6000600d60008481526020019081526020016000206040518061012001604052908160008201548152602001600182018054610c6490614927565b80601f0160208091040260200160405190810160405280929190818152602001828054610c9090614927565b8015610cdd5780601f10610cb257610100808354040283529160200191610cdd565b820191906000526020600020905b815481529060010190602001808311610cc057829003601f168201915b50505050508152602001600282018054610cf690614927565b80601f0160208091040260200160405190810160405280929190818152602001828054610d2290614927565b8015610d6f5780601f10610d4457610100808354040283529160200191610d6f565b820191906000526020600020905b815481529060010190602001808311610d5257829003601f168201915b505050505081526020016003820160009054906101000a900473ffffffffffffffffffffffffffffffffffffffff1673ffffffffffffffffffffffffffffffffffffffff1673ffffffffffffffffffffffffffffffffffffffff1681526020016004820160009054906101000a900473ffffffffffffffffffffffffffffffffffffffff1673ffffffffffffffffffffffffffffffffffffffff1673ffffffffffffffffffffffffffffffffffffffff1681526020016005820160009054906101000a900473ffffffffffffffffffffffffffffffffffffffff1673ffffffffffffffffffffffffffffffffffffffff1673ffffffffffffffffffffffffffffffffffffffff168152602001600682015481526020016007820160009054906101000a900460ff16151515158152602001600882018054610eaf90614927565b80601f0160208091040260200160405190810160405280929190818152602001828054610edb90614927565b8015610f285780601f10610efd57610100808354040283529160200191610f28565b820191906000526020600020905b815481529060010190602001808311610f0b57829003601f168201915b50505050508152505090508060c00151341015610f7a576040517f08c379a0000000000000000000000000000000000000000000000000000000008152600401610f71906144d6565b60405180910390fd5b8060e00151610f8857600080fd5b610f93823385612b36565b6000816080015190508073ffffffffffffffffffffffffffffffffffffffff166108fc349081150290604051600060405180830381858888f19350505050158015610fe2573d6000803e3d6000fd5b5081608001518260a0019073ffffffffffffffffffffffffffffffffffffffff16908173ffffffffffffffffffffffffffffffffffffffff168152505033826080019073ffffffffffffffffffffffffffffffffffffffff16908173ffffffffffffffffffffffffffffffffffffffff168152505081600d6000868152602001908152602001600020600082015181600001556020820151816001019080519060200190611091929190613419565b5060408201518160020190805190602001906110ae929190613419565b5060608201518160030160006101000a81548173ffffffffffffffffffffffffffffffffffffffff021916908373ffffffffffffffffffffffffffffffffffffffff16021790555060808201518160040160006101000a81548173ffffffffffffffffffffffffffffffffffffffff021916908373ffffffffffffffffffffffffffffffffffffffff16021790555060a08201518160050160006101000a81548173ffffffffffffffffffffffffffffffffffffffff021916908373ffffffffffffffffffffffffffffffffffffffff16021790555060c0820151816006015560e08201518160070160006101000a81548160ff0219169083151502179055506101008201518160080190805190602001906111cb929190613419565b5090505050505050565b6111dd612997565b73ffffffffffffffffffffffffffffffffffffffff166111fb61162a565b73ffffffffffffffffffffffffffffffffffffffff1614611251576040517f08c379a000000000000000000000000000000000000000000000000000000000815260040161124890614456565b60405180910390fd5b600061125b61162a565b90508073ffffffffffffffffffffffffffffffffffffffff166108fc479081150290604051600060405180830381858888f193505050501580156112a3573d6000803e3d6000fd5b5050565b6112c283838360405180602001604052806000815250611dc8565b505050565b606060006112d483611eb8565b905080915050919050565b600073ffffffffffffffffffffffffffffffffffffffff163373ffffffffffffffffffffffffffffffffffffffff16141561131957600080fd5b600c5434101561132857600080fd5b600061133383611393565b90503373ffffffffffffffffffffffffffffffffffffffff168173ffffffffffffffffffffffffffffffffffffffff161461136d57600080fd5b6000600d6000858152602001908152602001600020905082816006018190555050505050565b6000806002600084815260200190815260200160002060009054906101000a900473ffffffffffffffffffffffffffffffffffffffff169050600073ffffffffffffffffffffffffffffffffffffffff168173ffffffffffffffffffffffffffffffffffffffff16141561143c576040517f08c379a0000000000000000000000000000000000000000000000000000000008152600401611433906143d6565b60405180910390fd5b80915050919050565b600a805461145290614927565b80601f016020809104026020016040519081016040528092919081815260200182805461147e90614927565b80156114cb5780601f106114a0576101008083540402835291602001916114cb565b820191906000526020600020905b8154815290600101906020018083116114ae57829003601f168201915b505050505081565b60008073ffffffffffffffffffffffffffffffffffffffff168273ffffffffffffffffffffffffffffffffffffffff161415611544576040517f08c379a000000000000000000000000000000000000000000000000000000000815260040161153b906143b6565b60405180910390fd5b600360008373ffffffffffffffffffffffffffffffffffffffff1673ffffffffffffffffffffffffffffffffffffffff168152602001908152602001600020549050919050565b611593612997565b73ffffffffffffffffffffffffffffffffffffffff166115b161162a565b73ffffffffffffffffffffffffffffffffffffffff1614611607576040517f08c379a00000000000000000000000000000000000000000000000000000000081526004016115fe90614456565b60405180910390fd5b6116116000612d92565b565b60008061161f836114d3565b905080915050919050565b6000600660009054906101000a900473ffffffffffffffffffffffffffffffffffffffff16905090565b60606001805461166390614927565b80601f016020809104026020016040519081016040528092919081815260200182805461168f90614927565b80156116dc5780601f106116b1576101008083540402835291602001916116dc565b820191906000526020600020905b8154815290600101906020018083116116bf57829003601f168201915b5050505050905090565b6116ee612997565b73ffffffffffffffffffffffffffffffffffffffff168273ffffffffffffffffffffffffffffffffffffffff16141561175c576040517f08c379a000000000000000000000000000000000000000000000000000000000815260040161175390614356565b60405180910390fd5b8060056000611769612997565b73ffffffffffffffffffffffffffffffffffffffff1673ffffffffffffffffffffffffffffffffffffffff16815260200190815260200160002060008473ffffffffffffffffffffffffffffffffffffffff1673ffffffffffffffffffffffffffffffffffffffff16815260200190815260200160002060006101000a81548160ff0219169083151502179055508173ffffffffffffffffffffffffffffffffffffffff16611816612997565b73ffffffffffffffffffffffffffffffffffffffff167f17307eab39ab6107e8899845ad3d59bd9653f200f220920489ca2b5937696c318360405161185b9190614279565b60405180910390a35050565b600073ffffffffffffffffffffffffffffffffffffffff163373ffffffffffffffffffffffffffffffffffffffff1614156118a157600080fd5b6118aa8161292b565b6118b357600080fd5b60006118be82611393565b90503373ffffffffffffffffffffffffffffffffffffffff168173ffffffffffffffffffffffffffffffffffffffff16146118f857600080fd5b6000600d6000848152602001908152602001600020604051806101200160405290816000820154815260200160018201805461193390614927565b80601f016020809104026020016040519081016040528092919081815260200182805461195f90614927565b80156119ac5780601f10611981576101008083540402835291602001916119ac565b820191906000526020600020905b81548152906001019060200180831161198f57829003601f168201915b505050505081526020016002820180546119c590614927565b80601f01602080910402602001604051908101604052809291908181526020018280546119f190614927565b8015611a3e5780601f10611a1357610100808354040283529160200191611a3e565b820191906000526020600020905b815481529060010190602001808311611a2157829003601f168201915b505050505081526020016003820160009054906101000a900473ffffffffffffffffffffffffffffffffffffffff1673ffffffffffffffffffffffffffffffffffffffff1673ffffffffffffffffffffffffffffffffffffffff1681526020016004820160009054906101000a900473ffffffffffffffffffffffffffffffffffffffff1673ffffffffffffffffffffffffffffffffffffffff1673ffffffffffffffffffffffffffffffffffffffff1681526020016005820160009054906101000a900473ffffffffffffffffffffffffffffffffffffffff1673ffffffffffffffffffffffffffffffffffffffff1673ffffffffffffffffffffffffffffffffffffffff168152602001600682015481526020016007820160009054906101000a900460ff16151515158152602001600882018054611b7e90614927565b80601f0160208091040260200160405190810160405280929190818152602001828054611baa90614927565b8015611bf75780601f10611bcc57610100808354040283529160200191611bf7565b820191906000526020600020905b815481529060010190602001808311611bda57829003601f168201915b50505050508152505090508060e0015115611c225760008160e0019015159081151581525050611c34565b60018160e00190151590811515815250505b80600d6000858152602001908152602001600020600082015181600001556020820151816001019080519060200190611c6e929190613419565b506040820151816002019080519060200190611c8b929190613419565b5060608201518160030160006101000a81548173ffffffffffffffffffffffffffffffffffffffff021916908373ffffffffffffffffffffffffffffffffffffffff16021790555060808201518160040160006101000a81548173ffffffffffffffffffffffffffffffffffffffff021916908373ffffffffffffffffffffffffffffffffffffffff16021790555060a08201518160050160006101000a81548173ffffffffffffffffffffffffffffffffffffffff021916908373ffffffffffffffffffffffffffffffffffffffff16021790555060c0820151816006015560e08201518160070160006101000a81548160ff021916908315150217905550610100820151816008019080519060200190611da8929190613419565b50905050505050565b600080611dbd83611393565b905080915050919050565b611dd9611dd3612997565b83612a58565b611e18576040517f08c379a0000000000000000000000000000000000000000000000000000000008152600401611e0f90614516565b60405180910390fd5b611e2484848484612e58565b50505050565b60088054611e3790614927565b80601f0160208091040260200160405190810160405280929190818152602001828054611e6390614927565b8015611eb05780601f10611e8557610100808354040283529160200191611eb0565b820191906000526020600020905b815481529060010190602001808311611e9357829003601f168201915b505050505081565b6060611ec38261292b565b611f02576040517f08c379a0000000000000000000000000000000000000000000000000000000008152600401611ef990614496565b60405180910390fd5b6000611f0c612eb4565b90506000815111611f2c5760405180602001604052806000815250611f57565b80611f3684612ecb565b604051602001611f479291906141ee565b6040516020818303038152906040525b915050919050565b600080611f6c600b613078565b90508091505090565b600d602052806000526040600020600091509050806000015490806001018054611f9e90614927565b80601f0160208091040260200160405190810160405280929190818152602001828054611fca90614927565b80156120175780601f10611fec57610100808354040283529160200191612017565b820191906000526020600020905b815481529060010190602001808311611ffa57829003601f168201915b50505050509080600201805461202c90614927565b80601f016020809104026020016040519081016040528092919081815260200182805461205890614927565b80156120a55780601f1061207a576101008083540402835291602001916120a5565b820191906000526020600020905b81548152906001019060200180831161208857829003601f168201915b5050505050908060030160009054906101000a900473ffffffffffffffffffffffffffffffffffffffff16908060040160009054906101000a900473ffffffffffffffffffffffffffffffffffffffff16908060050160009054906101000a900473ffffffffffffffffffffffffffffffffffffffff16908060060154908060070160009054906101000a900460ff169080600801805461214590614927565b80601f016020809104026020016040519081016040528092919081815260200182805461217190614927565b80156121be5780601f10612193576101008083540402835291602001916121be565b820191906000526020600020905b8154815290600101906020018083116121a157829003601f168201915b5050505050905089565b600980546121d590614927565b80601f016020809104026020016040519081016040528092919081815260200182805461220190614927565b801561224e5780601f106122235761010080835404028352916020019161224e565b820191906000526020600020905b81548152906001019060200180831161223157829003601f168201915b505050505081565b6000600560008473ffffffffffffffffffffffffffffffffffffffff1673ffffffffffffffffffffffffffffffffffffffff16815260200190815260200160002060008373ffffffffffffffffffffffffffffffffffffffff1673ffffffffffffffffffffffffffffffffffffffff16815260200190815260200160002060009054906101000a900460ff16905092915050565b6122f2612997565b73ffffffffffffffffffffffffffffffffffffffff1661231061162a565b73ffffffffffffffffffffffffffffffffffffffff1614612366576040517f08c379a000000000000000000000000000000000000000000000000000000000815260040161235d90614456565b60405180910390fd5b600260075414156123ac576040517f08c379a00000000000000000000000000000000000000000000000000000000081526004016123a390614536565b60405180910390fd5b6002600781905550600073ffffffffffffffffffffffffffffffffffffffff163373ffffffffffffffffffffffffffffffffffffffff1614156123ee57600080fd5b60008411612431576040517f08c379a000000000000000000000000000000000000000000000000000000000815260040161242890614556565b60405180910390fd5b600c54341015612476576040517f08c379a000000000000000000000000000000000000000000000000000000000815260040161246d906144f6565b60405180910390fd5b600f8560405161248691906141d7565b908152602001604051809103902060009054906101000a900460ff16156124ac57600080fd5b600e866040516124bc91906141d7565b908152602001604051809103902060009054906101000a900460ff16156124e257600080fd5b6124ec600b613086565b60006124f8600b613078565b9050612504838261309c565b6001600f8760405161251691906141d7565b908152602001604051809103902060006101000a81548160ff0219169083151502179055506001600e8860405161254d91906141d7565b908152602001604051809103902060006101000a81548160ff02191690831515021790555060006040518061012001604052808381526020018981526020018881526020013373ffffffffffffffffffffffffffffffffffffffff1681526020018573ffffffffffffffffffffffffffffffffffffffff168152602001600073ffffffffffffffffffffffffffffffffffffffff168152602001878152602001841515815260200186815250905080600d6000848152602001908152602001600020600082015181600001556020820151816001019080519060200190612635929190613419565b506040820151816002019080519060200190612652929190613419565b5060608201518160030160006101000a81548173ffffffffffffffffffffffffffffffffffffffff021916908373ffffffffffffffffffffffffffffffffffffffff16021790555060808201518160040160006101000a81548173ffffffffffffffffffffffffffffffffffffffff021916908373ffffffffffffffffffffffffffffffffffffffff16021790555060a08201518160050160006101000a81548173ffffffffffffffffffffffffffffffffffffffff021916908373ffffffffffffffffffffffffffffffffffffffff16021790555060c0820151816006015560e08201518160070160006101000a81548160ff02191690831515021790555061010082015181600801908051906020019061276f929190613419565b509050507f7594c44e892ba87814e8387de4cba2d744162afad20ea01e24c7ca2581ad3a0a828989338860008c6040516127af97969594939291906145b1565b60405180910390a150506001600781905550505050505050565b6127d1612997565b73ffffffffffffffffffffffffffffffffffffffff166127ef61162a565b73ffffffffffffffffffffffffffffffffffffffff1614612845576040517f08c379a000000000000000000000000000000000000000000000000000000000815260040161283c90614456565b60405180910390fd5b600073ffffffffffffffffffffffffffffffffffffffff168173ffffffffffffffffffffffffffffffffffffffff1614156128b5576040517f08c379a00000000000000000000000000000000000000000000000000000000081526004016128ac906142f6565b60405180910390fd5b6128be81612d92565b50565b60007f01ffc9a7000000000000000000000000000000000000000000000000000000007bffffffffffffffffffffffffffffffffffffffffffffffffffffffff1916827bffffffffffffffffffffffffffffffffffffffffffffffffffffffff1916149050919050565b60008073ffffffffffffffffffffffffffffffffffffffff166002600084815260200190815260200160002060009054906101000a900473ffffffffffffffffffffffffffffffffffffffff1673ffffffffffffffffffffffffffffffffffffffff1614159050919050565b600033905090565b816004600083815260200190815260200160002060006101000a81548173ffffffffffffffffffffffffffffffffffffffff021916908373ffffffffffffffffffffffffffffffffffffffff160217905550808273ffffffffffffffffffffffffffffffffffffffff16612a1283611393565b73ffffffffffffffffffffffffffffffffffffffff167f8c5be1e5ebec7d5bd14f71427d1e84f3dd0314c0f7b2291e5b200ac8c7c3b92560405160405180910390a45050565b6000612a638261292b565b612aa2576040517f08c379a0000000000000000000000000000000000000000000000000000000008152600401612a9990614376565b60405180910390fd5b6000612aad83611393565b90508073ffffffffffffffffffffffffffffffffffffffff168473ffffffffffffffffffffffffffffffffffffffff161480612b1c57508373ffffffffffffffffffffffffffffffffffffffff16612b04846108d7565b73ffffffffffffffffffffffffffffffffffffffff16145b80612b2d5750612b2c8185612256565b5b91505092915050565b8273ffffffffffffffffffffffffffffffffffffffff16612b5682611393565b73ffffffffffffffffffffffffffffffffffffffff1614612bac576040517f08c379a0000000000000000000000000000000000000000000000000000000008152600401612ba390614476565b60405180910390fd5b600073ffffffffffffffffffffffffffffffffffffffff168273ffffffffffffffffffffffffffffffffffffffff161415612c1c576040517f08c379a0000000000000000000000000000000000000000000000000000000008152600401612c1390614336565b60405180910390fd5b612c2783838361326a565b612c3260008261299f565b6001600360008573ffffffffffffffffffffffffffffffffffffffff1673ffffffffffffffffffffffffffffffffffffffff1681526020019081526020016000206000828254612c82919061482b565b925050819055506001600360008473ffffffffffffffffffffffffffffffffffffffff1673ffffffffffffffffffffffffffffffffffffffff1681526020019081526020016000206000828254612cd991906147a4565b92505081905550816002600083815260200190815260200160002060006101000a81548173ffffffffffffffffffffffffffffffffffffffff021916908373ffffffffffffffffffffffffffffffffffffffff160217905550808273ffffffffffffffffffffffffffffffffffffffff168473ffffffffffffffffffffffffffffffffffffffff167fddf252ad1be2c89b69c2b068fc378daa952ba7f163c4a11628f55a4df523b3ef60405160405180910390a4505050565b6000600660009054906101000a900473ffffffffffffffffffffffffffffffffffffffff16905081600660006101000a81548173ffffffffffffffffffffffffffffffffffffffff021916908373ffffffffffffffffffffffffffffffffffffffff1602179055508173ffffffffffffffffffffffffffffffffffffffff168173ffffffffffffffffffffffffffffffffffffffff167f8be0079c531659141344cd1fd0a4f28419497f9722a3daafe3b4186f6b6457e060405160405180910390a35050565b612e63848484612b36565b612e6f8484848461326f565b612eae576040517f08c379a0000000000000000000000000000000000000000000000000000000008152600401612ea5906142d6565b60405180910390fd5b50505050565b606060405180602001604052806000815250905090565b60606000821415612f13576040518060400160405280600181526020017f30000000000000000000000000000000000000000000000000000000000000008152509050613073565b600082905060005b60008214612f45578080612f2e90614959565b915050600a82612f3e91906147fa565b9150612f1b565b60008167ffffffffffffffff811115612f87577f4e487b7100000000000000000000000000000000000000000000000000000000600052604160045260246000fd5b6040519080825280601f01601f191660200182016040528015612fb95781602001600182028036833780820191505090505b5090505b6000851461306c57600182612fd2919061482b565b9150600a85612fe191906149a2565b6030612fed91906147a4565b60f81b818381518110613029577f4e487b7100000000000000000000000000000000000000000000000000000000600052603260045260246000fd5b60200101907effffffffffffffffffffffffffffffffffffffffffffffffffffffffffffff1916908160001a905350600a8561306591906147fa565b9450612fbd565b8093505050505b919050565b600081600001549050919050565b6001816000016000828254019250508190555050565b600073ffffffffffffffffffffffffffffffffffffffff168273ffffffffffffffffffffffffffffffffffffffff16141561310c576040517f08c379a0000000000000000000000000000000000000000000000000000000008152600401613103906143f6565b60405180910390fd5b6131158161292b565b15613155576040517f08c379a000000000000000000000000000000000000000000000000000000000815260040161314c90614316565b60405180910390fd5b6131616000838361326a565b6001600360008473ffffffffffffffffffffffffffffffffffffffff1673ffffffffffffffffffffffffffffffffffffffff16815260200190815260200160002060008282546131b191906147a4565b92505081905550816002600083815260200190815260200160002060006101000a81548173ffffffffffffffffffffffffffffffffffffffff021916908373ffffffffffffffffffffffffffffffffffffffff160217905550808273ffffffffffffffffffffffffffffffffffffffff16600073ffffffffffffffffffffffffffffffffffffffff167fddf252ad1be2c89b69c2b068fc378daa952ba7f163c4a11628f55a4df523b3ef60405160405180910390a45050565b505050565b60006132908473ffffffffffffffffffffffffffffffffffffffff16613406565b156133f9578373ffffffffffffffffffffffffffffffffffffffff1663150b7a026132b9612997565b8786866040518563ffffffff1660e01b81526004016132db949392919061422d565b602060405180830381600087803b1580156132f557600080fd5b505af192505050801561332657506040513d601f19601f8201168201806040525081019061332391906137c5565b60015b6133a9573d8060008114613356576040519150601f19603f3d011682016040523d82523d6000602084013e61335b565b606091505b506000815114156133a1576040517f08c379a0000000000000000000000000000000000000000000000000000000008152600401613398906142d6565b60405180910390fd5b805181602001fd5b63150b7a0260e01b7bffffffffffffffffffffffffffffffffffffffffffffffffffffffff1916817bffffffffffffffffffffffffffffffffffffffffffffffffffffffff1916149150506133fe565b600190505b949350505050565b600080823b905060008111915050919050565b82805461342590614927565b90600052602060002090601f016020900481019282613447576000855561348e565b82601f1061346057805160ff191683800117855561348e565b8280016001018555821561348e579182015b8281111561348d578251825591602001919060010190613472565b5b50905061349b919061349f565b5090565b5b808211156134b85760008160009055506001016134a0565b5090565b60006134cf6134ca84614701565b6146d0565b9050828152602081018484840111156134e757600080fd5b6134f28482856148e5565b509392505050565b600061350d61350884614731565b6146d0565b90508281526020810184848401111561352557600080fd5b6135308482856148e5565b509392505050565b60008135905061354781614aa0565b92915050565b60008135905061355c81614ab7565b92915050565b60008135905061357181614ace565b92915050565b60008151905061358681614ace565b92915050565b600082601f83011261359d57600080fd5b81356135ad8482602086016134bc565b91505092915050565b600082601f8301126135c757600080fd5b81356135d78482602086016134fa565b91505092915050565b6000813590506135ef81614ae5565b92915050565b60006020828403121561360757600080fd5b600061361584828501613538565b91505092915050565b6000806040838503121561363157600080fd5b600061363f85828601613538565b925050602061365085828601613538565b9150509250929050565b60008060006060848603121561366f57600080fd5b600061367d86828701613538565b935050602061368e86828701613538565b925050604061369f868287016135e0565b9150509250925092565b600080600080608085870312156136bf57600080fd5b60006136cd87828801613538565b94505060206136de87828801613538565b93505060406136ef878288016135e0565b925050606085013567ffffffffffffffff81111561370c57600080fd5b6137188782880161358c565b91505092959194509250565b6000806040838503121561373757600080fd5b600061374585828601613538565b92505060206137568582860161354d565b9150509250929050565b6000806040838503121561377357600080fd5b600061378185828601613538565b9250506020613792858286016135e0565b9150509250929050565b6000602082840312156137ae57600080fd5b60006137bc84828501613562565b91505092915050565b6000602082840312156137d757600080fd5b60006137e584828501613577565b91505092915050565b60008060008060008060c0878903121561380757600080fd5b600087013567ffffffffffffffff81111561382157600080fd5b61382d89828a016135b6565b965050602087013567ffffffffffffffff81111561384a57600080fd5b61385689828a016135b6565b955050604061386789828a016135e0565b945050606087013567ffffffffffffffff81111561388457600080fd5b61389089828a016135b6565b93505060806138a189828a01613538565b92505060a06138b289828a0161354d565b9150509295509295509295565b6000602082840312156138d157600080fd5b60006138df848285016135e0565b91505092915050565b600080604083850312156138fb57600080fd5b6000613909858286016135e0565b925050602061391a858286016135e0565b9150509250929050565b61392d81614871565b82525050565b61393c8161485f565b82525050565b61394b81614883565b82525050565b600061395c82614761565b6139668185614777565b93506139768185602086016148f4565b61397f81614a8f565b840191505092915050565b60006139958261476c565b61399f8185614788565b93506139af8185602086016148f4565b6139b881614a8f565b840191505092915050565b60006139ce8261476c565b6139d88185614799565b93506139e88185602086016148f4565b80840191505092915050565b6000613a01601e83614788565b91507f796f752063616e206e6f742062757920796f7572206f776e20746f6b656e00006000830152602082019050919050565b6000613a41603283614788565b91507f4552433732313a207472616e7366657220746f206e6f6e20455243373231526560008301527f63656976657220696d706c656d656e74657200000000000000000000000000006020830152604082019050919050565b6000613aa7602683614788565b91507f4f776e61626c653a206e6577206f776e657220697320746865207a65726f206160008301527f64647265737300000000000000000000000000000000000000000000000000006020830152604082019050919050565b6000613b0d601c83614788565b91507f4552433732313a20746f6b656e20616c7265616479206d696e746564000000006000830152602082019050919050565b6000613b4d602483614788565b91507f4552433732313a207472616e7366657220746f20746865207a65726f2061646460008301527f72657373000000000000000000000000000000000000000000000000000000006020830152604082019050919050565b6000613bb3601983614788565b91507f4552433732313a20617070726f766520746f2063616c6c6572000000000000006000830152602082019050919050565b6000613bf3602c83614788565b91507f4552433732313a206f70657261746f7220717565727920666f72206e6f6e657860008301527f697374656e7420746f6b656e00000000000000000000000000000000000000006020830152604082019050919050565b6000613c59603883614788565b91507f4552433732313a20617070726f76652063616c6c6572206973206e6f74206f7760008301527f6e6572206e6f7220617070726f76656420666f7220616c6c00000000000000006020830152604082019050919050565b6000613cbf602a83614788565b91507f4552433732313a2062616c616e636520717565727920666f7220746865207a6560008301527f726f2061646472657373000000000000000000000000000000000000000000006020830152604082019050919050565b6000613d25602983614788565b91507f4552433732313a206f776e657220717565727920666f72206e6f6e657869737460008301527f656e7420746f6b656e00000000000000000000000000000000000000000000006020830152604082019050919050565b6000613d8b602083614788565b91507f4552433732313a206d696e7420746f20746865207a65726f20616464726573736000830152602082019050919050565b6000613dcb601883614788565b91507f61646472657373206d757374206e6f74206265206e756c6c00000000000000006000830152602082019050919050565b6000613e0b602c83614788565b91507f4552433732313a20617070726f76656420717565727920666f72206e6f6e657860008301527f697374656e7420746f6b656e00000000000000000000000000000000000000006020830152604082019050919050565b6000613e71602083614788565b91507f4f776e61626c653a2063616c6c6572206973206e6f7420746865206f776e65726000830152602082019050919050565b6000613eb1602983614788565b91507f4552433732313a207472616e73666572206f6620746f6b656e2074686174206960008301527f73206e6f74206f776e00000000000000000000000000000000000000000000006020830152604082019050919050565b6000613f17602f83614788565b91507f4552433732314d657461646174613a2055524920717565727920666f72206e6f60008301527f6e6578697374656e7420746f6b656e00000000000000000000000000000000006020830152604082019050919050565b6000613f7d602183614788565b91507f4552433732313a20617070726f76616c20746f2063757272656e74206f776e6560008301527f72000000000000000000000000000000000000000000000000000000000000006020830152604082019050919050565b6000613fe3601e83614788565b91507f706c6561736520456e7465722066756c6c20707269636520746f2062757900006000830152602082019050919050565b6000614023602483614788565b91507f5072696365206d75737420626520657175616c20746f206c697374696e67207060008301527f72696365000000000000000000000000000000000000000000000000000000006020830152604082019050919050565b6000614089603183614788565b91507f4552433732313a207472616e736665722063616c6c6572206973206e6f74206f60008301527f776e6572206e6f7220617070726f7665640000000000000000000000000000006020830152604082019050919050565b60006140ef601f83614788565b91507f5265656e7472616e637947756172643a207265656e7472616e742063616c6c006000830152602082019050919050565b600061412f601c83614788565b91507f5072696365206d757374206265206174206c65617374203120776569000000006000830152602082019050919050565b600061416f602383614788565b91507f746f6b656e206d757374206265206578697473206f6e2074686520636f6e747260008301527f61637400000000000000000000000000000000000000000000000000000000006020830152604082019050919050565b6141d1816148db565b82525050565b60006141e382846139c3565b915081905092915050565b60006141fa82856139c3565b915061420682846139c3565b91508190509392505050565b60006020820190506142276000830184613933565b92915050565b60006080820190506142426000830187613933565b61424f6020830186613933565b61425c60408301856141c8565b818103606083015261426e8184613951565b905095945050505050565b600060208201905061428e6000830184613942565b92915050565b600060208201905081810360008301526142ae818461398a565b905092915050565b600060208201905081810360008301526142cf816139f4565b9050919050565b600060208201905081810360008301526142ef81613a34565b9050919050565b6000602082019050818103600083015261430f81613a9a565b9050919050565b6000602082019050818103600083015261432f81613b00565b9050919050565b6000602082019050818103600083015261434f81613b40565b9050919050565b6000602082019050818103600083015261436f81613ba6565b9050919050565b6000602082019050818103600083015261438f81613be6565b9050919050565b600060208201905081810360008301526143af81613c4c565b9050919050565b600060208201905081810360008301526143cf81613cb2565b9050919050565b600060208201905081810360008301526143ef81613d18565b9050919050565b6000602082019050818103600083015261440f81613d7e565b9050919050565b6000602082019050818103600083015261442f81613dbe565b9050919050565b6000602082019050818103600083015261444f81613dfe565b9050919050565b6000602082019050818103600083015261446f81613e64565b9050919050565b6000602082019050818103600083015261448f81613ea4565b9050919050565b600060208201905081810360008301526144af81613f0a565b9050919050565b600060208201905081810360008301526144cf81613f70565b9050919050565b600060208201905081810360008301526144ef81613fd6565b9050919050565b6000602082019050818103600083015261450f81614016565b9050919050565b6000602082019050818103600083015261452f8161407c565b9050919050565b6000602082019050818103600083015261454f816140e2565b9050919050565b6000602082019050818103600083015261456f81614122565b9050919050565b6000602082019050818103600083015261458f81614162565b9050919050565b60006020820190506145ab60008301846141c8565b92915050565b600060e0820190506145c6600083018a6141c8565b81810360208301526145d8818961398a565b905081810360408301526145ec818861398a565b90506145fb6060830187613924565b6146086080830186613924565b61461560a0830185613924565b61462260c08301846141c8565b98975050505050505050565b600061012082019050614644600083018c6141c8565b8181036020830152614656818b61398a565b9050818103604083015261466a818a61398a565b90506146796060830189613924565b6146866080830188613924565b61469360a0830187613924565b6146a060c08301866141c8565b6146ad60e0830185613942565b8181036101008301526146c0818461398a565b90509a9950505050505050505050565b6000604051905081810181811067ffffffffffffffff821117156146f7576146f6614a60565b5b8060405250919050565b600067ffffffffffffffff82111561471c5761471b614a60565b5b601f19601f8301169050602081019050919050565b600067ffffffffffffffff82111561474c5761474b614a60565b5b601f19601f8301169050602081019050919050565b600081519050919050565b600081519050919050565b600082825260208201905092915050565b600082825260208201905092915050565b600081905092915050565b60006147af826148db565b91506147ba836148db565b9250827fffffffffffffffffffffffffffffffffffffffffffffffffffffffffffffffff038211156147ef576147ee6149d3565b5b828201905092915050565b6000614805826148db565b9150614810836148db565b9250826148205761481f614a02565b5b828204905092915050565b6000614836826148db565b9150614841836148db565b925082821015614854576148536149d3565b5b828203905092915050565b600061486a826148bb565b9050919050565b600061487c826148bb565b9050919050565b60008115159050919050565b60007fffffffff0000000000000000000000000000000000000000000000000000000082169050919050565b600073ffffffffffffffffffffffffffffffffffffffff82169050919050565b6000819050919050565b82818337600083830152505050565b60005b838110156149125780820151818401526020810190506148f7565b83811115614921576000848401525b50505050565b6000600282049050600182168061493f57607f821691505b6020821081141561495357614952614a31565b5b50919050565b6000614964826148db565b91507fffffffffffffffffffffffffffffffffffffffffffffffffffffffffffffffff821415614997576149966149d3565b5b600182019050919050565b60006149ad826148db565b91506149b8836148db565b9250826149c8576149c7614a02565b5b828206905092915050565b7f4e487b7100000000000000000000000000000000000000000000000000000000600052601160045260246000fd5b7f4e487b7100000000000000000000000000000000000000000000000000000000600052601260045260246000fd5b7f4e487b7100000000000000000000000000000000000000000000000000000000600052602260045260246000fd5b7f4e487b7100000000000000000000000000000000000000000000000000000000600052604160045260246000fd5b6000601f19601f8301169050919050565b614aa98161485f565b8114614ab457600080fd5b50565b614ac081614883565b8114614acb57600080fd5b50565b614ad78161488f565b8114614ae257600080fd5b50565b614aee816148db565b8114614af957600080fd5b5056fea2646970667358221220196b6c7632cedecdba401afcf09ca4cfb2fb09405866f6e48bd5b99e502e254d64736f6c63430008000033476f7674206f6620496e646961202043727970746f73746174652020506f726174616c",
  "immutableReferences": {},
  "source": "// SPDX-License-Identifier: MIT\npragma solidity ^0.8.0;\nimport \"@openzeppelin/contracts/utils/Counters.sol\";\nimport \"@openzeppelin/contracts/security/ReentrancyGuard.sol\";\nimport \"@openzeppelin/contracts/token/ERC721/ERC721.sol\";\nimport \"@openzeppelin/contracts/access/Ownable.sol\";\n\ncontract CryptoState is ERC721, Ownable, ReentrancyGuard {\n    using Counters for Counters.Counter;\n\n    string public nameOf = \"Govt of India  Cryptostate  Poratal\";\n\n    // this is contract's token collection name\n    string public collectionName;\n    // this is the contract's token symbol\n    string public collectionNameSymbol;\n\n    // total number of collection that to be created\n    Counters.Counter private cryptoStateCouter;\n    //listing price\n    uint256 listingPrice = 0.1 ether;\n\n    struct CryptoState {\n        uint256 tokenId;\n        string tokenName;\n        string tokenURI;\n        address payable mintedBy;\n        address payable currentOwner;\n        address payable perviousOwner;\n        uint256 price;\n        bool forSale;\n        string placeAddress;\n    }\n    event CryptoStateItemCreate(\n        uint256 tokenId,\n        string tokenName,\n        string tokenURI,\n        address payable mintedBy,\n        address payable currentowner,\n        address payable oldowenr,\n        uint256 price\n    );\n    // map cryptoStata's token id to cryptostate\n    mapping(uint256 => CryptoState) public allCryptostate;\n    // token validation\n    mapping(string => bool) private tokenNameExists;\n    //check if the token URI exists\n    mapping(string => bool) private tokenURIExists;\n\n    constructor() ERC721(\"CryptoState\", \"IND\") {\n        collectionName = name();\n        collectionNameSymbol = symbol();\n    }\n// this function is used to transfer ether to govt account\n function withdraw() public payable onlyOwner {\n        address payable _owner = payable(owner());\n        _owner.transfer(address(this).balance);\n    }\n    // create new cryptostate\n    // Creation\n\n    function mintCryptoState(\n        string memory _name,\n        string memory _tokenURI,\n        uint256 _price,\n        string memory _placeAddress,\n        address _owner,\n        bool _forSell\n    ) public payable onlyOwner nonReentrant {\n        // address should to be valide\n        require(msg.sender != address(0));\n        // price must be grater then 0\n        require(_price > 0, \"Price must be at least 1 wei\");\n        // listing price should to be equal\n        require(\n            msg.value >= listingPrice,\n            \"Price must be equal to listing price\"\n        );\n\n        //token URI must be uniqe\n        require(!tokenURIExists[_tokenURI]);\n        // token name must be uniqe\n        require(!tokenNameExists[_name]);\n        // increament the counter of cryptostate\n        cryptoStateCouter.increment();\n        //getting the current count\n        uint256 tokenId = cryptoStateCouter.current();\n        // mint the token\n        _mint(_owner, tokenId);\n        // set token URI (bind token id with the passed in token URI)\n        // _setTokenURI(tokenId, _tokenURI);\n        tokenURIExists[_tokenURI] = true;\n        tokenNameExists[_name] = true;\n        // creat a new crypto state (struct) and pass in new values\n        CryptoState memory newCryptoState = CryptoState(\n            tokenId,\n            _name,\n            _tokenURI,\n            payable(msg.sender),\n            payable(_owner),\n            payable(address(0)),\n            _price,\n            _forSell,\n            _placeAddress\n        );\n        // adding to the allCrypto state array\n        allCryptostate[tokenId] = newCryptoState;\n        // emit event\n        emit CryptoStateItemCreate(\n            tokenId,\n            _name,\n            _tokenURI,\n            payable(msg.sender),\n            payable(_owner),\n            payable(address(0)),\n            _price\n        );\n    }\n\n    //getting the pricing list\n    function getListingPrice() public view returns (uint256) {\n        return listingPrice;\n    }\n\n    // get owner of the token\n    function getTokenOwner(uint256 _tokenId) public view returns (address) {\n        address _tokenOwer = ownerOf(_tokenId);\n        return _tokenOwer;\n    }\n\n    // to feel after sometime\n    function getTokenMetadata(uint256 _tokenId)\n        public\n        view\n        returns (string memory)\n    {\n    string memory tokenMetaData = tokenURI(_tokenId);\n    return tokenMetaData;\n    }\n\n    // get the number of token that created till the function is called\n    function getNumberOfTokensMinted() public view returns (uint256) {\n        uint256 totalNumberofTokensMinted = cryptoStateCouter.current();\n        return totalNumberofTokensMinted;\n    }\n\n    // get the number of the token owned by the  caller of the function\n    function TokenownedByaddress(address _owner) public view returns (uint256) {\n        uint256 totalNumberofTokensowned = balanceOf(_owner);\n        return totalNumberofTokensowned;\n    }\n\n    // returns if some token is exits or not\n    function getTokenExists(uint256 _tokenId) public view returns (bool) {\n        bool tokenExists = _exists(_tokenId);\n        return tokenExists;\n    }\n\n    // buy the Cryptostate\n    function buyToken(uint256 _tokenId) public payable {\n        require(msg.sender != address(0), \"address must not be null\");\n        // token it must be exits\n        require(_exists(_tokenId), \"token must be exits on the contract\");\n        // get the owner of the token\n        address tokenOnwer = ownerOf(_tokenId);\n        // we can not buy over own token\n        require(msg.sender != tokenOnwer, \"you can not buy your own token\");\n        // getting token form the block chain\n        CryptoState memory cryptostate = allCryptostate[_tokenId];\n        // the price must be equal to or greater then\n        require(\n            msg.value >= cryptostate.price,\n            \"please Enter full price to buy\"\n        );\n        // it must be marked as for sale\n        require(cryptostate.forSale);\n\n        // tansfer the owner ship\n        _transfer(tokenOnwer, msg.sender, _tokenId);\n        // getting the current owner of the smart contract\n        address payable sendTo = cryptostate.currentOwner;\n        // sending the token worth to the owner of the  token\n        sendTo.transfer(msg.value);\n        //update  pervious owner\n        cryptostate.perviousOwner = cryptostate.currentOwner;\n        // update the current owner\n        cryptostate.currentOwner = payable(msg.sender);\n\n        // set and update the data of token\n        allCryptostate[_tokenId] = cryptostate;\n    }\n\n    // change the price oft the token\n    function changeTokenPrice(uint256 _tokenId, uint256 _newPrice)\n        public\n        payable\n    {\n        // address must not be empty\n        require(msg.sender != address(0));\n\n        require(msg.value >= listingPrice);\n\n        address tokenOnwer = ownerOf(_tokenId);\n\n        require(tokenOnwer == msg.sender);\n\n        CryptoState storage  cryptostate = allCryptostate[_tokenId];\n        //update the price\n        cryptostate.price = _newPrice;\n\n    }\n\n    function toggleForSale(uint256 _tokenId) public payable {\n        require(msg.sender != address(0));\n        // require caller of the function is not an empty address\n        // require that token should exist\n        require(_exists(_tokenId));\n        // get the token's owner\n        address tokenOwner = ownerOf(_tokenId);\n        // check that token's owner should be equal to the caller of the function\n        require(tokenOwner == msg.sender);\n        // get that token from all crypto boys mapping and create a memory of it defined as (struct => CryptoBoy)\n\n        CryptoState memory cryptostate = allCryptostate[_tokenId];\n\n        if (cryptostate.forSale) {\n            cryptostate.forSale = false;\n        } else {\n            cryptostate.forSale = true;\n        }\n        // set and update that token in the mapping\n        allCryptostate[_tokenId] = cryptostate;\n    }\n    // get all the sold proudct\n    // we can do for this at front end\n    // fetch my own NFT we can do for it on front-end\n \n    \n}\n",
  "sourcePath": "/home/akhilesh/Desktop/block_chain_flow/Hackcbs_Nullpointer/cryptostate/src/contracts/CryptoState.sol",
  "compiler": {
    "name": "solc",
    "version": "0.8.0+commit.c7dfd78e.Emscripten.clang"
  },
  "schemaVersion": "3.4.3",
  "updatedAt": "2021-10-31T06:40:11.849Z",
  "networkType": "ethereum",
  "devdoc": {
    "kind": "dev",
    "methods": {
      "approve(address,uint256)": {
        "details": "See {IERC721-approve}."
      },
      "balanceOf(address)": {
        "details": "See {IERC721-balanceOf}."
      },
      "getApproved(uint256)": {
        "details": "See {IERC721-getApproved}."
      },
      "isApprovedForAll(address,address)": {
        "details": "See {IERC721-isApprovedForAll}."
      },
      "name()": {
        "details": "See {IERC721Metadata-name}."
      },
      "owner()": {
        "details": "Returns the address of the current owner."
      },
      "ownerOf(uint256)": {
        "details": "See {IERC721-ownerOf}."
      },
      "renounceOwnership()": {
        "details": "Leaves the contract without owner. It will not be possible to call `onlyOwner` functions anymore. Can only be called by the current owner. NOTE: Renouncing ownership will leave the contract without an owner, thereby removing any functionality that is only available to the owner."
      },
      "safeTransferFrom(address,address,uint256)": {
        "details": "See {IERC721-safeTransferFrom}."
      },
      "safeTransferFrom(address,address,uint256,bytes)": {
        "details": "See {IERC721-safeTransferFrom}."
      },
      "setApprovalForAll(address,bool)": {
        "details": "See {IERC721-setApprovalForAll}."
      },
      "supportsInterface(bytes4)": {
        "details": "See {IERC165-supportsInterface}."
      },
      "symbol()": {
        "details": "See {IERC721Metadata-symbol}."
      },
      "tokenURI(uint256)": {
        "details": "See {IERC721Metadata-tokenURI}."
      },
      "transferFrom(address,address,uint256)": {
        "details": "See {IERC721-transferFrom}."
      },
      "transferOwnership(address)": {
        "details": "Transfers ownership of the contract to a new account (`newOwner`). Can only be called by the current owner."
      }
    },
    "version": 1
  },
  "userdoc": {
    "kind": "user",
    "methods": {},
    "version": 1
  }
}