{
  "contractName": "CryptoState",
  "abi": [
    {
      "inputs": [],
      "stateMutability": "nonpayable",
      "type": "constructor"
    },
    {
      "anonymous": false,
      "inputs": [
        {
          "indexed": true,
          "internalType": "address",
          "name": "owner",
          "type": "address"
        },
        {
          "indexed": true,
          "internalType": "address",
          "name": "approved",
          "type": "address"
        },
        {
          "indexed": true,
          "internalType": "uint256",
          "name": "tokenId",
          "type": "uint256"
        }
      ],
      "name": "Approval",
      "type": "event"
    },
    {
      "anonymous": false,
      "inputs": [
        {
          "indexed": true,
          "internalType": "address",
          "name": "owner",
          "type": "address"
        },
        {
          "indexed": true,
          "internalType": "address",
          "name": "operator",
          "type": "address"
        },
        {
          "indexed": false,
          "internalType": "bool",
          "name": "approved",
          "type": "bool"
        }
      ],
      "name": "ApprovalForAll",
      "type": "event"
    },
    {
      "anonymous": false,
      "inputs": [
        {
          "indexed": false,
          "internalType": "uint256",
          "name": "tokenId",
          "type": "uint256"
        },
        {
          "indexed": false,
          "internalType": "string",
          "name": "tokenName",
          "type": "string"
        },
        {
          "indexed": false,
          "internalType": "string",
          "name": "tokenURI",
          "type": "string"
        },
        {
          "indexed": false,
          "internalType": "address payable",
          "name": "mintedBy",
          "type": "address"
        },
        {
          "indexed": false,
          "internalType": "address payable",
          "name": "currentowner",
          "type": "address"
        },
        {
          "indexed": false,
          "internalType": "address payable",
          "name": "oldowenr",
          "type": "address"
        },
        {
          "indexed": false,
          "internalType": "uint256",
          "name": "price",
          "type": "uint256"
        }
      ],
      "name": "CryptoStateItemCreate",
      "type": "event"
    },
    {
      "anonymous": false,
      "inputs": [
        {
          "indexed": true,
          "internalType": "address",
          "name": "previousOwner",
          "type": "address"
        },
        {
          "indexed": true,
          "internalType": "address",
          "name": "newOwner",
          "type": "address"
        }
      ],
      "name": "OwnershipTransferred",
      "type": "event"
    },
    {
      "anonymous": false,
      "inputs": [
        {
          "indexed": true,
          "internalType": "address",
          "name": "from",
          "type": "address"
        },
        {
          "indexed": true,
          "internalType": "address",
          "name": "to",
          "type": "address"
        },
        {
          "indexed": true,
          "internalType": "uint256",
          "name": "tokenId",
          "type": "uint256"
        }
      ],
      "name": "Transfer",
      "type": "event"
    },
    {
      "inputs": [
        {
          "internalType": "uint256",
          "name": "",
          "type": "uint256"
        }
      ],
      "name": "allCryptostate",
      "outputs": [
        {
          "internalType": "uint256",
          "name": "tokenId",
          "type": "uint256"
        },
        {
          "internalType": "string",
          "name": "tokenName",
          "type": "string"
        },
        {
          "internalType": "string",
          "name": "tokenURI",
          "type": "string"
        },
        {
          "internalType": "address payable",
          "name": "mintedBy",
          "type": "address"
        },
        {
          "internalType": "address payable",
          "name": "currentOwner",
          "type": "address"
        },
        {
          "internalType": "address payable",
          "name": "perviousOwner",
          "type": "address"
        },
        {
          "internalType": "uint256",
          "name": "price",
          "type": "uint256"
        },
        {
          "internalType": "bool",
          "name": "forSale",
          "type": "bool"
        },
        {
          "internalType": "string",
          "name": "placeAddress",
          "type": "string"
        }
      ],
      "stateMutability": "view",
      "type": "function",
      "constant": true
    },
    {
      "inputs": [
        {
          "internalType": "address",
          "name": "to",
          "type": "address"
        },
        {
          "internalType": "uint256",
          "name": "tokenId",
          "type": "uint256"
        }
      ],
      "name": "approve",
      "outputs": [],
      "stateMutability": "nonpayable",
      "type": "function"
    },
    {
      "inputs": [
        {
          "internalType": "address",
          "name": "owner",
          "type": "address"
        }
      ],
      "name": "balanceOf",
      "outputs": [
        {
          "internalType": "uint256",
          "name": "",
          "type": "uint256"
        }
      ],
      "stateMutability": "view",
      "type": "function",
      "constant": true
    },
    {
      "inputs": [],
      "name": "collectionName",
      "outputs": [
        {
          "internalType": "string",
          "name": "",
          "type": "string"
        }
      ],
      "stateMutability": "view",
      "type": "function",
      "constant": true
    },
    {
      "inputs": [],
      "name": "collectionNameSymbol",
      "outputs": [
        {
          "internalType": "string",
          "name": "",
          "type": "string"
        }
      ],
      "stateMutability": "view",
      "type": "function",
      "constant": true
    },
    {
      "inputs": [
        {
          "internalType": "uint256",
          "name": "tokenId",
          "type": "uint256"
        }
      ],
      "name": "getApproved",
      "outputs": [
        {
          "internalType": "address",
          "name": "",
          "type": "address"
        }
      ],
      "stateMutability": "view",
      "type": "function",
      "constant": true
    },
    {
      "inputs": [
        {
          "internalType": "address",
          "name": "owner",
          "type": "address"
        },
        {
          "internalType": "address",
          "name": "operator",
          "type": "address"
        }
      ],
      "name": "isApprovedForAll",
      "outputs": [
        {
          "internalType": "bool",
          "name": "",
          "type": "bool"
        }
      ],
      "stateMutability": "view",
      "type": "function",
      "constant": true
    },
    {
      "inputs": [],
      "name": "name",
      "outputs": [
        {
          "internalType": "string",
          "name": "",
          "type": "string"
        }
      ],
      "stateMutability": "view",
      "type": "function",
      "constant": true
    },
    {
      "inputs": [],
      "name": "nameOf",
      "outputs": [
        {
          "internalType": "string",
          "name": "",
          "type": "string"
        }
      ],
      "stateMutability": "view",
      "type": "function",
      "constant": true
    },
    {
      "inputs": [],
      "name": "owner",
      "outputs": [
        {
          "internalType": "address",
          "name": "",
          "type": "address"
        }
      ],
      "stateMutability": "view",
      "type": "function",
      "constant": true
    },
    {
      "inputs": [
        {
          "internalType": "uint256",
          "name": "tokenId",
          "type": "uint256"
        }
      ],
      "name": "ownerOf",
      "outputs": [
        {
          "internalType": "address",
          "name": "",
          "type": "address"
        }
      ],
      "stateMutability": "view",
      "type": "function",
      "constant": true
    },
    {
      "inputs": [],
      "name": "renounceOwnership",
      "outputs": [],
      "stateMutability": "nonpayable",
      "type": "function"
    },
    {
      "inputs": [
        {
          "internalType": "address",
          "name": "from",
          "type": "address"
        },
        {
          "internalType": "address",
          "name": "to",
          "type": "address"
        },
        {
          "internalType": "uint256",
          "name": "tokenId",
          "type": "uint256"
        }
      ],
      "name": "safeTransferFrom",
      "outputs": [],
      "stateMutability": "nonpayable",
      "type": "function"
    },
    {
      "inputs": [
        {
          "internalType": "address",
          "name": "from",
          "type": "address"
        },
        {
          "internalType": "address",
          "name": "to",
          "type": "address"
        },
        {
          "internalType": "uint256",
          "name": "tokenId",
          "type": "uint256"
        },
        {
          "internalType": "bytes",
          "name": "_data",
          "type": "bytes"
        }
      ],
      "name": "safeTransferFrom",
      "outputs": [],
      "stateMutability": "nonpayable",
      "type": "function"
    },
    {
      "inputs": [
        {
          "internalType": "address",
          "name": "operator",
          "type": "address"
        },
        {
          "internalType": "bool",
          "name": "approved",
          "type": "bool"
        }
      ],
      "name": "setApprovalForAll",
      "outputs": [],
      "stateMutability": "nonpayable",
      "type": "function"
    },
    {
      "inputs": [
        {
          "internalType": "bytes4",
          "name": "interfaceId",
          "type": "bytes4"
        }
      ],
      "name": "supportsInterface",
      "outputs": [
        {
          "internalType": "bool",
          "name": "",
          "type": "bool"
        }
      ],
      "stateMutability": "view",
      "type": "function",
      "constant": true
    },
    {
      "inputs": [],
      "name": "symbol",
      "outputs": [
        {
          "internalType": "string",
          "name": "",
          "type": "string"
        }
      ],
      "stateMutability": "view",
      "type": "function",
      "constant": true
    },
    {
      "inputs": [
        {
          "internalType": "uint256",
          "name": "tokenId",
          "type": "uint256"
        }
      ],
      "name": "tokenURI",
      "outputs": [
        {
          "internalType": "string",
          "name": "",
          "type": "string"
        }
      ],
      "stateMutability": "view",
      "type": "function",
      "constant": true
    },
    {
      "inputs": [
        {
          "internalType": "address",
          "name": "from",
          "type": "address"
        },
        {
          "internalType": "address",
          "name": "to",
          "type": "address"
        },
        {
          "internalType": "uint256",
          "name": "tokenId",
          "type": "uint256"
        }
      ],
      "name": "transferFrom",
      "outputs": [],
      "stateMutability": "nonpayable",
      "type": "function"
    },
    {
      "inputs": [
        {
          "internalType": "address",
          "name": "newOwner",
          "type": "address"
        }
      ],
      "name": "transferOwnership",
      "outputs": [],
      "stateMutability": "nonpayable",
      "type": "function"
    },
    {
      "inputs": [],
      "name": "withdraw",
      "outputs": [],
      "stateMutability": "payable",
      "type": "function",
      "payable": true
    },
    {
      "inputs": [
        {
          "internalType": "string",
          "name": "_name",
          "type": "string"
        },
        {
          "internalType": "string",
          "name": "_tokenURI",
          "type": "string"
        },
        {
          "internalType": "uint256",
          "name": "_price",
          "type": "uint256"
        },
        {
          "internalType": "string",
          "name": "_placeAddress",
          "type": "string"
        },
        {
          "internalType": "address",
          "name": "_owner",
          "type": "address"
        },
        {
          "internalType": "bool",
          "name": "_forSell",
          "type": "bool"
        }
      ],
      "name": "mintCryptoState",
      "outputs": [],
      "stateMutability": "payable",
      "type": "function",
      "payable": true
    },
    {
      "inputs": [],
      "name": "getListingPrice",
      "outputs": [
        {
          "internalType": "uint256",
          "name": "",
          "type": "uint256"
        }
      ],
      "stateMutability": "view",
      "type": "function",
      "constant": true
    },
    {
      "inputs": [
        {
          "internalType": "uint256",
          "name": "_tokenId",
          "type": "uint256"
        }
      ],
      "name": "getTokenOwner",
      "outputs": [
        {
          "internalType": "address",
          "name": "",
          "type": "address"
        }
      ],
      "stateMutability": "view",
      "type": "function",
      "constant": true
    },
    {
      "inputs": [
        {
          "internalType": "uint256",
          "name": "_tokenId",
          "type": "uint256"
        }
      ],
      "name": "getTokenMetadata",
      "outputs": [
        {
          "internalType": "string",
          "name": "",
          "type": "string"
        }
      ],
      "stateMutability": "view",
      "type": "function",
      "constant": true
    },
    {
      "inputs": [],
      "name": "getNumberOfTokensMinted",
      "outputs": [
        {
          "internalType": "uint256",
          "name": "",
          "type": "uint256"
        }
      ],
      "stateMutability": "view",
      "type": "function",
      "constant": true
    },
    {
      "inputs": [
        {
          "internalType": "address",
          "name": "_owner",
          "type": "address"
        }
      ],
      "name": "TokenownedByaddress",
      "outputs": [
        {
          "internalType": "uint256",
          "name": "",
          "type": "uint256"
        }
      ],
      "stateMutability": "view",
      "type": "function",
      "constant": true
    },
    {
      "inputs": [
        {
          "internalType": "uint256",
          "name": "_tokenId",
          "type": "uint256"
        }
      ],
      "name": "getTokenExists",
      "outputs": [
        {
          "internalType": "bool",
          "name": "",
          "type": "bool"
        }
      ],
      "stateMutability": "view",
      "type": "function",
      "constant": true
    },
    {
      "inputs": [
        {
          "internalType": "uint256",
          "name": "_tokenId",
          "type": "uint256"
        }
      ],
      "name": "buyToken",
      "outputs": [],
      "stateMutability": "payable",
      "type": "function",
      "payable": true
    },
    {
      "inputs": [
        {
          "internalType": "uint256",
          "name": "_tokenId",
          "type": "uint256"
        },
        {
          "internalType": "uint256",
          "name": "_newPrice",
          "type": "uint256"
        }
      ],
      "name": "changeTokenPrice",
      "outputs": [],
      "stateMutability": "payable",
      "type": "function",
      "payable": true
    },
    {
      "inputs": [
        {
          "internalType": "uint256",
          "name": "_tokenId",
          "type": "uint256"
        }
      ],
      "name": "toggleForSale",
      "outputs": [],
      "stateMutability": "payable",
      "type": "function",
      "payable": true
    },
    {
      "inputs": [],
      "name": "getAlldataofUser",
      "outputs": [
        {
          "components": [
            {
              "internalType": "uint256",
              "name": "tokenId",
              "type": "uint256"
            },
            {
              "internalType": "string",
              "name": "tokenName",
              "type": "string"
            },
            {
              "internalType": "string",
              "name": "tokenURI",
              "type": "string"
            },
            {
              "internalType": "address payable",
              "name": "mintedBy",
              "type": "address"
            },
            {
              "internalType": "address payable",
              "name": "currentOwner",
              "type": "address"
            },
            {
              "internalType": "address payable",
              "name": "perviousOwner",
              "type": "address"
            },
            {
              "internalType": "uint256",
              "name": "price",
              "type": "uint256"
            },
            {
              "internalType": "bool",
              "name": "forSale",
              "type": "bool"
            },
            {
              "internalType": "string",
              "name": "placeAddress",
              "type": "string"
            }
          ],
          "internalType": "struct CryptoState.CryptoState[]",
          "name": "",
          "type": "tuple[]"
        }
      ],
      "stateMutability": "view",
      "type": "function",
      "constant": true
    }
  ],
  "bytecode": "0x60806040526040518060600160405280602381526020016200590c60239139600890805190602001906200003592919062000370565b5067016345785d8a0000600c553480156200004f57600080fd5b506040518060400160405280600b81526020017f43727970746f53746174650000000000000000000000000000000000000000008152506040518060400160405280600381526020017f494e4400000000000000000000000000000000000000000000000000000000008152508160009080519060200190620000d492919062000370565b508060019080519060200190620000ed92919062000370565b50505062000110620001046200016e60201b60201c565b6200017660201b60201c565b6001600781905550620001286200023c60201b60201c565b600990805190602001906200013f92919062000370565b5062000150620002d660201b60201c565b600a90805190602001906200016792919062000370565b5062000485565b600033905090565b6000600660009054906101000a900473ffffffffffffffffffffffffffffffffffffffff16905081600660006101000a81548173ffffffffffffffffffffffffffffffffffffffff021916908373ffffffffffffffffffffffffffffffffffffffff1602179055508173ffffffffffffffffffffffffffffffffffffffff168173ffffffffffffffffffffffffffffffffffffffff167f8be0079c531659141344cd1fd0a4f28419497f9722a3daafe3b4186f6b6457e060405160405180910390a35050565b6060600080546200024d9062000420565b80601f01602080910402602001604051908101604052809291908181526020018280546200027b9062000420565b8015620002cc5780601f10620002a057610100808354040283529160200191620002cc565b820191906000526020600020905b815481529060010190602001808311620002ae57829003601f168201915b5050505050905090565b606060018054620002e79062000420565b80601f0160208091040260200160405190810160405280929190818152602001828054620003159062000420565b8015620003665780601f106200033a5761010080835404028352916020019162000366565b820191906000526020600020905b8154815290600101906020018083116200034857829003601f168201915b5050505050905090565b8280546200037e9062000420565b90600052602060002090601f016020900481019282620003a25760008555620003ee565b82601f10620003bd57805160ff1916838001178555620003ee565b82800160010185558215620003ee579182015b82811115620003ed578251825591602001919060010190620003d0565b5b509050620003fd919062000401565b5090565b5b808211156200041c57600081600090555060010162000402565b5090565b600060028204905060018216806200043957607f821691505b6020821081141562000450576200044f62000456565b5b50919050565b7f4e487b7100000000000000000000000000000000000000000000000000000000600052602260045260246000fd5b61547780620004956000396000f3fe6080604052600436106101e35760003560e01c8063810ff2fe11610102578063b8ec91d311610095578063e5326ab111610064578063e5326ab1146106ec578063e985e9c514610717578063ed5de8e814610754578063f2fde38b14610770576101e3565b8063b8ec91d314610614578063c87b56dd1461063f578063cc151f3a1461067c578063d07dee84146106a7576101e3565b8063a22cb465116100d1578063a22cb46514610569578063a32018b914610592578063a5cd761f146105ae578063b88d4fde146105eb576101e3565b8063810ff2fe146104ab5780638da5cb5b146104e85780639029e5e41461051357806395d89b411461053e576101e3565b80633ccfd60b1161017a5780636352211e116101495780636352211e146103ef5780636f9507f91461042c57806370a0823114610457578063715018a614610494576101e3565b80633ccfd60b1461036357806342842e0e1461036d578063603168011461039657806362e8e8ac146103d3576101e3565b806312e85585116101b657806312e85585146102b6578063142687f3146102e157806323b872dd1461031e5780632d296bf114610347576101e3565b806301ffc9a7146101e857806306fdde0314610225578063081812fc14610250578063095ea7b31461028d575b600080fd5b3480156101f457600080fd5b5061020f600480360381019061020a9190613f39565b610799565b60405161021c9190614b94565b60405180910390f35b34801561023157600080fd5b5061023a61087b565b6040516102479190614baf565b60405180910390f35b34801561025c57600080fd5b506102776004803603810190610272919061405c565b61090d565b6040516102849190614b0b565b60405180910390f35b34801561029957600080fd5b506102b460048036038101906102af9190613efd565b610992565b005b3480156102c257600080fd5b506102cb610aaa565b6040516102d89190614e91565b60405180910390f35b3480156102ed57600080fd5b506103086004803603810190610303919061405c565b610ab4565b6040516103159190614b94565b60405180910390f35b34801561032a57600080fd5b5061034560048036038101906103409190613df7565b610acb565b005b610361600480360381019061035c919061405c565b610b2b565b005b61036b61120b565b005b34801561037957600080fd5b50610394600480360381019061038f9190613df7565b6112dd565b005b3480156103a257600080fd5b506103bd60048036038101906103b8919061405c565b6112fd565b6040516103ca9190614baf565b60405180910390f35b6103ed60048036038101906103e89190614085565b611315565b005b3480156103fb57600080fd5b506104166004803603810190610411919061405c565b6116bd565b6040516104239190614b0b565b60405180910390f35b34801561043857600080fd5b5061044161176f565b60405161044e9190614baf565b60405180910390f35b34801561046357600080fd5b5061047e60048036038101906104799190613d92565b6117fd565b60405161048b9190614e91565b60405180910390f35b3480156104a057600080fd5b506104a96118b5565b005b3480156104b757600080fd5b506104d260048036038101906104cd9190613d92565b61193d565b6040516104df9190614e91565b60405180910390f35b3480156104f457600080fd5b506104fd611954565b60405161050a9190614b0b565b60405180910390f35b34801561051f57600080fd5b5061052861197e565b6040516105359190614b72565b60405180910390f35b34801561054a57600080fd5b50610553611da6565b6040516105609190614baf565b60405180910390f35b34801561057557600080fd5b50610590600480360381019061058b9190613ec1565b611e38565b005b6105ac60048036038101906105a7919061405c565b611fb9565b005b3480156105ba57600080fd5b506105d560048036038101906105d0919061405c565b612503565b6040516105e29190614b0b565b60405180910390f35b3480156105f757600080fd5b50610612600480360381019061060d9190613e46565b61251a565b005b34801561062057600080fd5b5061062961257c565b6040516106369190614baf565b60405180910390f35b34801561064b57600080fd5b506106666004803603810190610661919061405c565b61260a565b6040516106739190614baf565b60405180910390f35b34801561068857600080fd5b506106916126b1565b60405161069e9190614e91565b60405180910390f35b3480156106b357600080fd5b506106ce60048036038101906106c9919061405c565b6126c7565b6040516106e399989796959493929190614f29565b60405180910390f35b3480156106f857600080fd5b5061070161291a565b60405161070e9190614baf565b60405180910390f35b34801561072357600080fd5b5061073e60048036038101906107399190613dbb565b6129a8565b60405161074b9190614b94565b60405180910390f35b61076e60048036038101906107699190613f8b565b612a3c565b005b34801561077c57600080fd5b5061079760048036038101906107929190613d92565b612ed6565b005b60007f80ac58cd000000000000000000000000000000000000000000000000000000007bffffffffffffffffffffffffffffffffffffffffffffffffffffffff1916827bffffffffffffffffffffffffffffffffffffffffffffffffffffffff1916148061086457507f5b5e139f000000000000000000000000000000000000000000000000000000007bffffffffffffffffffffffffffffffffffffffffffffffffffffffff1916827bffffffffffffffffffffffffffffffffffffffffffffffffffffffff1916145b80610874575061087382612fce565b5b9050919050565b60606000805461088a9061526c565b80601f01602080910402602001604051908101604052809291908181526020018280546108b69061526c565b80156109035780601f106108d857610100808354040283529160200191610903565b820191906000526020600020905b8154815290600101906020018083116108e657829003601f168201915b5050505050905090565b600061091882613038565b610957576040517f08c379a000000000000000000000000000000000000000000000000000000000815260040161094e90614d51565b60405180910390fd5b6004600083815260200190815260200160002060009054906101000a900473ffffffffffffffffffffffffffffffffffffffff169050919050565b600061099d826116bd565b90508073ffffffffffffffffffffffffffffffffffffffff168373ffffffffffffffffffffffffffffffffffffffff161415610a0e576040517f08c379a0000000000000000000000000000000000000000000000000000000008152600401610a0590614dd1565b60405180910390fd5b8073ffffffffffffffffffffffffffffffffffffffff16610a2d6130a4565b73ffffffffffffffffffffffffffffffffffffffff161480610a5c5750610a5b81610a566130a4565b6129a8565b5b610a9b576040517f08c379a0000000000000000000000000000000000000000000000000000000008152600401610a9290614cb1565b60405180910390fd5b610aa583836130ac565b505050565b6000600c54905090565b600080610ac083613038565b905080915050919050565b610adc610ad66130a4565b82613165565b610b1b576040517f08c379a0000000000000000000000000000000000000000000000000000000008152600401610b1290614e11565b60405180910390fd5b610b26838383613243565b505050565b600073ffffffffffffffffffffffffffffffffffffffff163373ffffffffffffffffffffffffffffffffffffffff161415610b9b576040517f08c379a0000000000000000000000000000000000000000000000000000000008152600401610b9290614d31565b60405180910390fd5b610ba481613038565b610be3576040517f08c379a0000000000000000000000000000000000000000000000000000000008152600401610bda90614e71565b60405180910390fd5b6000610bee826116bd565b90508073ffffffffffffffffffffffffffffffffffffffff163373ffffffffffffffffffffffffffffffffffffffff161415610c5f576040517f08c379a0000000000000000000000000000000000000000000000000000000008152600401610c5690614bd1565b60405180910390fd5b6000600d60008481526020019081526020016000206040518061012001604052908160008201548152602001600182018054610c9a9061526c565b80601f0160208091040260200160405190810160405280929190818152602001828054610cc69061526c565b8015610d135780601f10610ce857610100808354040283529160200191610d13565b820191906000526020600020905b815481529060010190602001808311610cf657829003601f168201915b50505050508152602001600282018054610d2c9061526c565b80601f0160208091040260200160405190810160405280929190818152602001828054610d589061526c565b8015610da55780601f10610d7a57610100808354040283529160200191610da5565b820191906000526020600020905b815481529060010190602001808311610d8857829003601f168201915b505050505081526020016003820160009054906101000a900473ffffffffffffffffffffffffffffffffffffffff1673ffffffffffffffffffffffffffffffffffffffff1673ffffffffffffffffffffffffffffffffffffffff1681526020016004820160009054906101000a900473ffffffffffffffffffffffffffffffffffffffff1673ffffffffffffffffffffffffffffffffffffffff1673ffffffffffffffffffffffffffffffffffffffff1681526020016005820160009054906101000a900473ffffffffffffffffffffffffffffffffffffffff1673ffffffffffffffffffffffffffffffffffffffff1673ffffffffffffffffffffffffffffffffffffffff168152602001600682015481526020016007820160009054906101000a900460ff16151515158152602001600882018054610ee59061526c565b80601f0160208091040260200160405190810160405280929190818152602001828054610f119061526c565b8015610f5e5780601f10610f3357610100808354040283529160200191610f5e565b820191906000526020600020905b815481529060010190602001808311610f4157829003601f168201915b50505050508152505090508060c00151341015610fb0576040517f08c379a0000000000000000000000000000000000000000000000000000000008152600401610fa790614df1565b60405180910390fd5b8060e00151610fbe57600080fd5b610fc9823385613243565b6000816080015190508073ffffffffffffffffffffffffffffffffffffffff166108fc349081150290604051600060405180830381858888f19350505050158015611018573d6000803e3d6000fd5b5081608001518260a0019073ffffffffffffffffffffffffffffffffffffffff16908173ffffffffffffffffffffffffffffffffffffffff168152505033826080019073ffffffffffffffffffffffffffffffffffffffff16908173ffffffffffffffffffffffffffffffffffffffff168152505081600d60008681526020019081526020016000206000820151816000015560208201518160010190805190602001906110c7929190613b26565b5060408201518160020190805190602001906110e4929190613b26565b5060608201518160030160006101000a81548173ffffffffffffffffffffffffffffffffffffffff021916908373ffffffffffffffffffffffffffffffffffffffff16021790555060808201518160040160006101000a81548173ffffffffffffffffffffffffffffffffffffffff021916908373ffffffffffffffffffffffffffffffffffffffff16021790555060a08201518160050160006101000a81548173ffffffffffffffffffffffffffffffffffffffff021916908373ffffffffffffffffffffffffffffffffffffffff16021790555060c0820151816006015560e08201518160070160006101000a81548160ff021916908315150217905550610100820151816008019080519060200190611201929190613b26565b5090505050505050565b6112136130a4565b73ffffffffffffffffffffffffffffffffffffffff16611231611954565b73ffffffffffffffffffffffffffffffffffffffff1614611287576040517f08c379a000000000000000000000000000000000000000000000000000000000815260040161127e90614d71565b60405180910390fd5b6000611291611954565b90508073ffffffffffffffffffffffffffffffffffffffff166108fc479081150290604051600060405180830381858888f193505050501580156112d9573d6000803e3d6000fd5b5050565b6112f88383836040518060200160405280600081525061251a565b505050565b6060600061130a8361260a565b905080915050919050565b600073ffffffffffffffffffffffffffffffffffffffff163373ffffffffffffffffffffffffffffffffffffffff16141561134f57600080fd5b600c5434101561135e57600080fd5b6000611369836116bd565b90503373ffffffffffffffffffffffffffffffffffffffff168173ffffffffffffffffffffffffffffffffffffffff16146113a357600080fd5b6000600d600085815260200190815260200160002060405180610120016040529081600082015481526020016001820180546113de9061526c565b80601f016020809104026020016040519081016040528092919081815260200182805461140a9061526c565b80156114575780601f1061142c57610100808354040283529160200191611457565b820191906000526020600020905b81548152906001019060200180831161143a57829003601f168201915b505050505081526020016002820180546114709061526c565b80601f016020809104026020016040519081016040528092919081815260200182805461149c9061526c565b80156114e95780601f106114be576101008083540402835291602001916114e9565b820191906000526020600020905b8154815290600101906020018083116114cc57829003601f168201915b505050505081526020016003820160009054906101000a900473ffffffffffffffffffffffffffffffffffffffff1673ffffffffffffffffffffffffffffffffffffffff1673ffffffffffffffffffffffffffffffffffffffff1681526020016004820160009054906101000a900473ffffffffffffffffffffffffffffffffffffffff1673ffffffffffffffffffffffffffffffffffffffff1673ffffffffffffffffffffffffffffffffffffffff1681526020016005820160009054906101000a900473ffffffffffffffffffffffffffffffffffffffff1673ffffffffffffffffffffffffffffffffffffffff1673ffffffffffffffffffffffffffffffffffffffff168152602001600682015481526020016007820160009054906101000a900460ff161515151581526020016008820180546116299061526c565b80601f01602080910402602001604051908101604052809291908181526020018280546116559061526c565b80156116a25780601f10611677576101008083540402835291602001916116a2565b820191906000526020600020905b81548152906001019060200180831161168557829003601f168201915b5050505050815250509050828160c001818152505050505050565b6000806002600084815260200190815260200160002060009054906101000a900473ffffffffffffffffffffffffffffffffffffffff169050600073ffffffffffffffffffffffffffffffffffffffff168173ffffffffffffffffffffffffffffffffffffffff161415611766576040517f08c379a000000000000000000000000000000000000000000000000000000000815260040161175d90614cf1565b60405180910390fd5b80915050919050565b600a805461177c9061526c565b80601f01602080910402602001604051908101604052809291908181526020018280546117a89061526c565b80156117f55780601f106117ca576101008083540402835291602001916117f5565b820191906000526020600020905b8154815290600101906020018083116117d857829003601f168201915b505050505081565b60008073ffffffffffffffffffffffffffffffffffffffff168273ffffffffffffffffffffffffffffffffffffffff16141561186e576040517f08c379a000000000000000000000000000000000000000000000000000000000815260040161186590614cd1565b60405180910390fd5b600360008373ffffffffffffffffffffffffffffffffffffffff1673ffffffffffffffffffffffffffffffffffffffff168152602001908152602001600020549050919050565b6118bd6130a4565b73ffffffffffffffffffffffffffffffffffffffff166118db611954565b73ffffffffffffffffffffffffffffffffffffffff1614611931576040517f08c379a000000000000000000000000000000000000000000000000000000000815260040161192890614d71565b60405180910390fd5b61193b600061349f565b565b600080611949836117fd565b905080915050919050565b6000600660009054906101000a900473ffffffffffffffffffffffffffffffffffffffff16905090565b6060600061198c600b613565565b905060008167ffffffffffffffff8111156119d0577f4e487b7100000000000000000000000000000000000000000000000000000000600052604160045260246000fd5b604051908082528060200260200182016040528015611a0957816020015b6119f6613bac565b8152602001906001900390816119ee5790505b5090506000805b83811015611d9c576000600182611a2791906150e9565b90506000600d60008381526020019081526020016000209050806040518061012001604052908160008201548152602001600182018054611a679061526c565b80601f0160208091040260200160405190810160405280929190818152602001828054611a939061526c565b8015611ae05780601f10611ab557610100808354040283529160200191611ae0565b820191906000526020600020905b815481529060010190602001808311611ac357829003601f168201915b50505050508152602001600282018054611af99061526c565b80601f0160208091040260200160405190810160405280929190818152602001828054611b259061526c565b8015611b725780601f10611b4757610100808354040283529160200191611b72565b820191906000526020600020905b815481529060010190602001808311611b5557829003601f168201915b505050505081526020016003820160009054906101000a900473ffffffffffffffffffffffffffffffffffffffff1673ffffffffffffffffffffffffffffffffffffffff1673ffffffffffffffffffffffffffffffffffffffff1681526020016004820160009054906101000a900473ffffffffffffffffffffffffffffffffffffffff1673ffffffffffffffffffffffffffffffffffffffff1673ffffffffffffffffffffffffffffffffffffffff1681526020016005820160009054906101000a900473ffffffffffffffffffffffffffffffffffffffff1673ffffffffffffffffffffffffffffffffffffffff1673ffffffffffffffffffffffffffffffffffffffff168152602001600682015481526020016007820160009054906101000a900460ff16151515158152602001600882018054611cb29061526c565b80601f0160208091040260200160405190810160405280929190818152602001828054611cde9061526c565b8015611d2b5780601f10611d0057610100808354040283529160200191611d2b565b820191906000526020600020905b815481529060010190602001808311611d0e57829003601f168201915b505050505081525050858581518110611d6d577f4e487b7100000000000000000000000000000000000000000000000000000000600052603260045260246000fd5b6020026020010181905250600184611d8591906150e9565b935050508080611d949061529e565b915050611a10565b5081935050505090565b606060018054611db59061526c565b80601f0160208091040260200160405190810160405280929190818152602001828054611de19061526c565b8015611e2e5780601f10611e0357610100808354040283529160200191611e2e565b820191906000526020600020905b815481529060010190602001808311611e1157829003601f168201915b5050505050905090565b611e406130a4565b73ffffffffffffffffffffffffffffffffffffffff168273ffffffffffffffffffffffffffffffffffffffff161415611eae576040517f08c379a0000000000000000000000000000000000000000000000000000000008152600401611ea590614c71565b60405180910390fd5b8060056000611ebb6130a4565b73ffffffffffffffffffffffffffffffffffffffff1673ffffffffffffffffffffffffffffffffffffffff16815260200190815260200160002060008473ffffffffffffffffffffffffffffffffffffffff1673ffffffffffffffffffffffffffffffffffffffff16815260200190815260200160002060006101000a81548160ff0219169083151502179055508173ffffffffffffffffffffffffffffffffffffffff16611f686130a4565b73ffffffffffffffffffffffffffffffffffffffff167f17307eab39ab6107e8899845ad3d59bd9653f200f220920489ca2b5937696c3183604051611fad9190614b94565b60405180910390a35050565b600073ffffffffffffffffffffffffffffffffffffffff163373ffffffffffffffffffffffffffffffffffffffff161415611ff357600080fd5b611ffc81613038565b61200557600080fd5b6000612010826116bd565b90503373ffffffffffffffffffffffffffffffffffffffff168173ffffffffffffffffffffffffffffffffffffffff161461204a57600080fd5b6000600d600084815260200190815260200160002060405180610120016040529081600082015481526020016001820180546120859061526c565b80601f01602080910402602001604051908101604052809291908181526020018280546120b19061526c565b80156120fe5780601f106120d3576101008083540402835291602001916120fe565b820191906000526020600020905b8154815290600101906020018083116120e157829003601f168201915b505050505081526020016002820180546121179061526c565b80601f01602080910402602001604051908101604052809291908181526020018280546121439061526c565b80156121905780601f1061216557610100808354040283529160200191612190565b820191906000526020600020905b81548152906001019060200180831161217357829003601f168201915b505050505081526020016003820160009054906101000a900473ffffffffffffffffffffffffffffffffffffffff1673ffffffffffffffffffffffffffffffffffffffff1673ffffffffffffffffffffffffffffffffffffffff1681526020016004820160009054906101000a900473ffffffffffffffffffffffffffffffffffffffff1673ffffffffffffffffffffffffffffffffffffffff1673ffffffffffffffffffffffffffffffffffffffff1681526020016005820160009054906101000a900473ffffffffffffffffffffffffffffffffffffffff1673ffffffffffffffffffffffffffffffffffffffff1673ffffffffffffffffffffffffffffffffffffffff168152602001600682015481526020016007820160009054906101000a900460ff161515151581526020016008820180546122d09061526c565b80601f01602080910402602001604051908101604052809291908181526020018280546122fc9061526c565b80156123495780601f1061231e57610100808354040283529160200191612349565b820191906000526020600020905b81548152906001019060200180831161232c57829003601f168201915b50505050508152505090508060e00151156123745760008160e0019015159081151581525050612386565b60018160e00190151590811515815250505b80600d60008581526020019081526020016000206000820151816000015560208201518160010190805190602001906123c0929190613b26565b5060408201518160020190805190602001906123dd929190613b26565b5060608201518160030160006101000a81548173ffffffffffffffffffffffffffffffffffffffff021916908373ffffffffffffffffffffffffffffffffffffffff16021790555060808201518160040160006101000a81548173ffffffffffffffffffffffffffffffffffffffff021916908373ffffffffffffffffffffffffffffffffffffffff16021790555060a08201518160050160006101000a81548173ffffffffffffffffffffffffffffffffffffffff021916908373ffffffffffffffffffffffffffffffffffffffff16021790555060c0820151816006015560e08201518160070160006101000a81548160ff0219169083151502179055506101008201518160080190805190602001906124fa929190613b26565b50905050505050565b60008061250f836116bd565b905080915050919050565b61252b6125256130a4565b83613165565b61256a576040517f08c379a000000000000000000000000000000000000000000000000000000000815260040161256190614e11565b60405180910390fd5b61257684848484613573565b50505050565b600880546125899061526c565b80601f01602080910402602001604051908101604052809291908181526020018280546125b59061526c565b80156126025780601f106125d757610100808354040283529160200191612602565b820191906000526020600020905b8154815290600101906020018083116125e557829003601f168201915b505050505081565b606061261582613038565b612654576040517f08c379a000000000000000000000000000000000000000000000000000000000815260040161264b90614db1565b60405180910390fd5b600061265e6135cf565b9050600081511161267e57604051806020016040528060008152506126a9565b80612688846135e6565b604051602001612699929190614ae7565b6040516020818303038152906040525b915050919050565b6000806126be600b613565565b90508091505090565b600d6020528060005260406000206000915090508060000154908060010180546126f09061526c565b80601f016020809104026020016040519081016040528092919081815260200182805461271c9061526c565b80156127695780601f1061273e57610100808354040283529160200191612769565b820191906000526020600020905b81548152906001019060200180831161274c57829003601f168201915b50505050509080600201805461277e9061526c565b80601f01602080910402602001604051908101604052809291908181526020018280546127aa9061526c565b80156127f75780601f106127cc576101008083540402835291602001916127f7565b820191906000526020600020905b8154815290600101906020018083116127da57829003601f168201915b5050505050908060030160009054906101000a900473ffffffffffffffffffffffffffffffffffffffff16908060040160009054906101000a900473ffffffffffffffffffffffffffffffffffffffff16908060050160009054906101000a900473ffffffffffffffffffffffffffffffffffffffff16908060060154908060070160009054906101000a900460ff16908060080180546128979061526c565b80601f01602080910402602001604051908101604052809291908181526020018280546128c39061526c565b80156129105780601f106128e557610100808354040283529160200191612910565b820191906000526020600020905b8154815290600101906020018083116128f357829003601f168201915b5050505050905089565b600980546129279061526c565b80601f01602080910402602001604051908101604052809291908181526020018280546129539061526c565b80156129a05780601f10612975576101008083540402835291602001916129a0565b820191906000526020600020905b81548152906001019060200180831161298357829003601f168201915b505050505081565b6000600560008473ffffffffffffffffffffffffffffffffffffffff1673ffffffffffffffffffffffffffffffffffffffff16815260200190815260200160002060008373ffffffffffffffffffffffffffffffffffffffff1673ffffffffffffffffffffffffffffffffffffffff16815260200190815260200160002060009054906101000a900460ff16905092915050565b612a446130a4565b73ffffffffffffffffffffffffffffffffffffffff16612a62611954565b73ffffffffffffffffffffffffffffffffffffffff1614612ab8576040517f08c379a0000000000000000000000000000000000000000000000000000000008152600401612aaf90614d71565b60405180910390fd5b60026007541415612afe576040517f08c379a0000000000000000000000000000000000000000000000000000000008152600401612af590614e31565b60405180910390fd5b6002600781905550600073ffffffffffffffffffffffffffffffffffffffff163373ffffffffffffffffffffffffffffffffffffffff161415612b4057600080fd5b60008411612b83576040517f08c379a0000000000000000000000000000000000000000000000000000000008152600401612b7a90614e51565b60405180910390fd5b600f85604051612b939190614ad0565b908152602001604051809103902060009054906101000a900460ff1615612bb957600080fd5b600e86604051612bc99190614ad0565b908152602001604051809103902060009054906101000a900460ff1615612bef57600080fd5b612bf9600b613793565b6000612c05600b613565565b9050612c1183826137a9565b6001600f87604051612c239190614ad0565b908152602001604051809103902060006101000a81548160ff0219169083151502179055506001600e88604051612c5a9190614ad0565b908152602001604051809103902060006101000a81548160ff02191690831515021790555060006040518061012001604052808381526020018981526020018881526020013373ffffffffffffffffffffffffffffffffffffffff1681526020018573ffffffffffffffffffffffffffffffffffffffff168152602001600073ffffffffffffffffffffffffffffffffffffffff168152602001878152602001841515815260200186815250905080600d6000848152602001908152602001600020600082015181600001556020820151816001019080519060200190612d42929190613b26565b506040820151816002019080519060200190612d5f929190613b26565b5060608201518160030160006101000a81548173ffffffffffffffffffffffffffffffffffffffff021916908373ffffffffffffffffffffffffffffffffffffffff16021790555060808201518160040160006101000a81548173ffffffffffffffffffffffffffffffffffffffff021916908373ffffffffffffffffffffffffffffffffffffffff16021790555060a08201518160050160006101000a81548173ffffffffffffffffffffffffffffffffffffffff021916908373ffffffffffffffffffffffffffffffffffffffff16021790555060c0820151816006015560e08201518160070160006101000a81548160ff021916908315150217905550610100820151816008019080519060200190612e7c929190613b26565b509050507f7594c44e892ba87814e8387de4cba2d744162afad20ea01e24c7ca2581ad3a0a828989338860008c604051612ebc9796959493929190614eac565b60405180910390a150506001600781905550505050505050565b612ede6130a4565b73ffffffffffffffffffffffffffffffffffffffff16612efc611954565b73ffffffffffffffffffffffffffffffffffffffff1614612f52576040517f08c379a0000000000000000000000000000000000000000000000000000000008152600401612f4990614d71565b60405180910390fd5b600073ffffffffffffffffffffffffffffffffffffffff168173ffffffffffffffffffffffffffffffffffffffff161415612fc2576040517f08c379a0000000000000000000000000000000000000000000000000000000008152600401612fb990614c11565b60405180910390fd5b612fcb8161349f565b50565b60007f01ffc9a7000000000000000000000000000000000000000000000000000000007bffffffffffffffffffffffffffffffffffffffffffffffffffffffff1916827bffffffffffffffffffffffffffffffffffffffffffffffffffffffff1916149050919050565b60008073ffffffffffffffffffffffffffffffffffffffff166002600084815260200190815260200160002060009054906101000a900473ffffffffffffffffffffffffffffffffffffffff1673ffffffffffffffffffffffffffffffffffffffff1614159050919050565b600033905090565b816004600083815260200190815260200160002060006101000a81548173ffffffffffffffffffffffffffffffffffffffff021916908373ffffffffffffffffffffffffffffffffffffffff160217905550808273ffffffffffffffffffffffffffffffffffffffff1661311f836116bd565b73ffffffffffffffffffffffffffffffffffffffff167f8c5be1e5ebec7d5bd14f71427d1e84f3dd0314c0f7b2291e5b200ac8c7c3b92560405160405180910390a45050565b600061317082613038565b6131af576040517f08c379a00000000000000000000000000000000000000000000000000000000081526004016131a690614c91565b60405180910390fd5b60006131ba836116bd565b90508073ffffffffffffffffffffffffffffffffffffffff168473ffffffffffffffffffffffffffffffffffffffff16148061322957508373ffffffffffffffffffffffffffffffffffffffff166132118461090d565b73ffffffffffffffffffffffffffffffffffffffff16145b8061323a575061323981856129a8565b5b91505092915050565b8273ffffffffffffffffffffffffffffffffffffffff16613263826116bd565b73ffffffffffffffffffffffffffffffffffffffff16146132b9576040517f08c379a00000000000000000000000000000000000000000000000000000000081526004016132b090614d91565b60405180910390fd5b600073ffffffffffffffffffffffffffffffffffffffff168273ffffffffffffffffffffffffffffffffffffffff161415613329576040517f08c379a000000000000000000000000000000000000000000000000000000000815260040161332090614c51565b60405180910390fd5b613334838383613977565b61333f6000826130ac565b6001600360008573ffffffffffffffffffffffffffffffffffffffff1673ffffffffffffffffffffffffffffffffffffffff168152602001908152602001600020600082825461338f9190615170565b925050819055506001600360008473ffffffffffffffffffffffffffffffffffffffff1673ffffffffffffffffffffffffffffffffffffffff16815260200190815260200160002060008282546133e691906150e9565b92505081905550816002600083815260200190815260200160002060006101000a81548173ffffffffffffffffffffffffffffffffffffffff021916908373ffffffffffffffffffffffffffffffffffffffff160217905550808273ffffffffffffffffffffffffffffffffffffffff168473ffffffffffffffffffffffffffffffffffffffff167fddf252ad1be2c89b69c2b068fc378daa952ba7f163c4a11628f55a4df523b3ef60405160405180910390a4505050565b6000600660009054906101000a900473ffffffffffffffffffffffffffffffffffffffff16905081600660006101000a81548173ffffffffffffffffffffffffffffffffffffffff021916908373ffffffffffffffffffffffffffffffffffffffff1602179055508173ffffffffffffffffffffffffffffffffffffffff168173ffffffffffffffffffffffffffffffffffffffff167f8be0079c531659141344cd1fd0a4f28419497f9722a3daafe3b4186f6b6457e060405160405180910390a35050565b600081600001549050919050565b61357e848484613243565b61358a8484848461397c565b6135c9576040517f08c379a00000000000000000000000000000000000000000000000000000000081526004016135c090614bf1565b60405180910390fd5b50505050565b606060405180602001604052806000815250905090565b6060600082141561362e576040518060400160405280600181526020017f3000000000000000000000000000000000000000000000000000000000000000815250905061378e565b600082905060005b600082146136605780806136499061529e565b915050600a82613659919061513f565b9150613636565b60008167ffffffffffffffff8111156136a2577f4e487b7100000000000000000000000000000000000000000000000000000000600052604160045260246000fd5b6040519080825280601f01601f1916602001820160405280156136d45781602001600182028036833780820191505090505b5090505b60008514613787576001826136ed9190615170565b9150600a856136fc91906152e7565b603061370891906150e9565b60f81b818381518110613744577f4e487b7100000000000000000000000000000000000000000000000000000000600052603260045260246000fd5b60200101907effffffffffffffffffffffffffffffffffffffffffffffffffffffffffffff1916908160001a905350600a85613780919061513f565b94506136d8565b8093505050505b919050565b6001816000016000828254019250508190555050565b600073ffffffffffffffffffffffffffffffffffffffff168273ffffffffffffffffffffffffffffffffffffffff161415613819576040517f08c379a000000000000000000000000000000000000000000000000000000000815260040161381090614d11565b60405180910390fd5b61382281613038565b15613862576040517f08c379a000000000000000000000000000000000000000000000000000000000815260040161385990614c31565b60405180910390fd5b61386e60008383613977565b6001600360008473ffffffffffffffffffffffffffffffffffffffff1673ffffffffffffffffffffffffffffffffffffffff16815260200190815260200160002060008282546138be91906150e9565b92505081905550816002600083815260200190815260200160002060006101000a81548173ffffffffffffffffffffffffffffffffffffffff021916908373ffffffffffffffffffffffffffffffffffffffff160217905550808273ffffffffffffffffffffffffffffffffffffffff16600073ffffffffffffffffffffffffffffffffffffffff167fddf252ad1be2c89b69c2b068fc378daa952ba7f163c4a11628f55a4df523b3ef60405160405180910390a45050565b505050565b600061399d8473ffffffffffffffffffffffffffffffffffffffff16613b13565b15613b06578373ffffffffffffffffffffffffffffffffffffffff1663150b7a026139c66130a4565b8786866040518563ffffffff1660e01b81526004016139e89493929190614b26565b602060405180830381600087803b158015613a0257600080fd5b505af1925050508015613a3357506040513d601f19601f82011682018060405250810190613a309190613f62565b60015b613ab6573d8060008114613a63576040519150601f19603f3d011682016040523d82523d6000602084013e613a68565b606091505b50600081511415613aae576040517f08c379a0000000000000000000000000000000000000000000000000000000008152600401613aa590614bf1565b60405180910390fd5b805181602001fd5b63150b7a0260e01b7bffffffffffffffffffffffffffffffffffffffffffffffffffffffff1916817bffffffffffffffffffffffffffffffffffffffffffffffffffffffff191614915050613b0b565b600190505b949350505050565b600080823b905060008111915050919050565b828054613b329061526c565b90600052602060002090601f016020900481019282613b545760008555613b9b565b82601f10613b6d57805160ff1916838001178555613b9b565b82800160010185558215613b9b579182015b82811115613b9a578251825591602001919060010190613b7f565b5b509050613ba89190613c3c565b5090565b604051806101200160405280600081526020016060815260200160608152602001600073ffffffffffffffffffffffffffffffffffffffff168152602001600073ffffffffffffffffffffffffffffffffffffffff168152602001600073ffffffffffffffffffffffffffffffffffffffff16815260200160008152602001600015158152602001606081525090565b5b80821115613c55576000816000905550600101613c3d565b5090565b6000613c6c613c6784614ffc565b614fcb565b905082815260208101848484011115613c8457600080fd5b613c8f84828561522a565b509392505050565b6000613caa613ca58461502c565b614fcb565b905082815260208101848484011115613cc257600080fd5b613ccd84828561522a565b509392505050565b600081359050613ce4816153e5565b92915050565b600081359050613cf9816153fc565b92915050565b600081359050613d0e81615413565b92915050565b600081519050613d2381615413565b92915050565b600082601f830112613d3a57600080fd5b8135613d4a848260208601613c59565b91505092915050565b600082601f830112613d6457600080fd5b8135613d74848260208601613c97565b91505092915050565b600081359050613d8c8161542a565b92915050565b600060208284031215613da457600080fd5b6000613db284828501613cd5565b91505092915050565b60008060408385031215613dce57600080fd5b6000613ddc85828601613cd5565b9250506020613ded85828601613cd5565b9150509250929050565b600080600060608486031215613e0c57600080fd5b6000613e1a86828701613cd5565b9350506020613e2b86828701613cd5565b9250506040613e3c86828701613d7d565b9150509250925092565b60008060008060808587031215613e5c57600080fd5b6000613e6a87828801613cd5565b9450506020613e7b87828801613cd5565b9350506040613e8c87828801613d7d565b925050606085013567ffffffffffffffff811115613ea957600080fd5b613eb587828801613d29565b91505092959194509250565b60008060408385031215613ed457600080fd5b6000613ee285828601613cd5565b9250506020613ef385828601613cea565b9150509250929050565b60008060408385031215613f1057600080fd5b6000613f1e85828601613cd5565b9250506020613f2f85828601613d7d565b9150509250929050565b600060208284031215613f4b57600080fd5b6000613f5984828501613cff565b91505092915050565b600060208284031215613f7457600080fd5b6000613f8284828501613d14565b91505092915050565b60008060008060008060c08789031215613fa457600080fd5b600087013567ffffffffffffffff811115613fbe57600080fd5b613fca89828a01613d53565b965050602087013567ffffffffffffffff811115613fe757600080fd5b613ff389828a01613d53565b955050604061400489828a01613d7d565b945050606087013567ffffffffffffffff81111561402157600080fd5b61402d89828a01613d53565b935050608061403e89828a01613cd5565b92505060a061404f89828a01613cea565b9150509295509295509295565b60006020828403121561406e57600080fd5b600061407c84828501613d7d565b91505092915050565b6000806040838503121561409857600080fd5b60006140a685828601613d7d565b92505060206140b785828601613d7d565b9150509250929050565b60006140cd83836149df565b905092915050565b6140de816151b6565b82525050565b6140ed816151b6565b82525050565b6140fc816151a4565b82525050565b600061410d8261506c565b614117818561509a565b9350836020820285016141298561505c565b8060005b85811015614165578484038952815161414685826140c1565b94506141518361508d565b925060208a0199505060018101905061412d565b50829750879550505050505092915050565b614180816151c8565b82525050565b61418f816151c8565b82525050565b60006141a082615077565b6141aa81856150ab565b93506141ba818560208601615239565b6141c3816153d4565b840191505092915050565b60006141d982615082565b6141e381856150bc565b93506141f3818560208601615239565b6141fc816153d4565b840191505092915050565b600061421282615082565b61421c81856150cd565b935061422c818560208601615239565b614235816153d4565b840191505092915050565b600061424b82615082565b61425581856150de565b9350614265818560208601615239565b80840191505092915050565b600061427e601e836150cd565b91507f796f752063616e206e6f742062757920796f7572206f776e20746f6b656e00006000830152602082019050919050565b60006142be6032836150cd565b91507f4552433732313a207472616e7366657220746f206e6f6e20455243373231526560008301527f63656976657220696d706c656d656e74657200000000000000000000000000006020830152604082019050919050565b60006143246026836150cd565b91507f4f776e61626c653a206e6577206f776e657220697320746865207a65726f206160008301527f64647265737300000000000000000000000000000000000000000000000000006020830152604082019050919050565b600061438a601c836150cd565b91507f4552433732313a20746f6b656e20616c7265616479206d696e746564000000006000830152602082019050919050565b60006143ca6024836150cd565b91507f4552433732313a207472616e7366657220746f20746865207a65726f2061646460008301527f72657373000000000000000000000000000000000000000000000000000000006020830152604082019050919050565b60006144306019836150cd565b91507f4552433732313a20617070726f766520746f2063616c6c6572000000000000006000830152602082019050919050565b6000614470602c836150cd565b91507f4552433732313a206f70657261746f7220717565727920666f72206e6f6e657860008301527f697374656e7420746f6b656e00000000000000000000000000000000000000006020830152604082019050919050565b60006144d66038836150cd565b91507f4552433732313a20617070726f76652063616c6c6572206973206e6f74206f7760008301527f6e6572206e6f7220617070726f76656420666f7220616c6c00000000000000006020830152604082019050919050565b600061453c602a836150cd565b91507f4552433732313a2062616c616e636520717565727920666f7220746865207a6560008301527f726f2061646472657373000000000000000000000000000000000000000000006020830152604082019050919050565b60006145a26029836150cd565b91507f4552433732313a206f776e657220717565727920666f72206e6f6e657869737460008301527f656e7420746f6b656e00000000000000000000000000000000000000000000006020830152604082019050919050565b60006146086020836150cd565b91507f4552433732313a206d696e7420746f20746865207a65726f20616464726573736000830152602082019050919050565b60006146486018836150cd565b91507f61646472657373206d757374206e6f74206265206e756c6c00000000000000006000830152602082019050919050565b6000614688602c836150cd565b91507f4552433732313a20617070726f76656420717565727920666f72206e6f6e657860008301527f697374656e7420746f6b656e00000000000000000000000000000000000000006020830152604082019050919050565b60006146ee6020836150cd565b91507f4f776e61626c653a2063616c6c6572206973206e6f7420746865206f776e65726000830152602082019050919050565b600061472e6029836150cd565b91507f4552433732313a207472616e73666572206f6620746f6b656e2074686174206960008301527f73206e6f74206f776e00000000000000000000000000000000000000000000006020830152604082019050919050565b6000614794602f836150cd565b91507f4552433732314d657461646174613a2055524920717565727920666f72206e6f60008301527f6e6578697374656e7420746f6b656e00000000000000000000000000000000006020830152604082019050919050565b60006147fa6021836150cd565b91507f4552433732313a20617070726f76616c20746f2063757272656e74206f776e6560008301527f72000000000000000000000000000000000000000000000000000000000000006020830152604082019050919050565b6000614860601e836150cd565b91507f706c6561736520456e7465722066756c6c20707269636520746f2062757900006000830152602082019050919050565b60006148a06031836150cd565b91507f4552433732313a207472616e736665722063616c6c6572206973206e6f74206f60008301527f776e6572206e6f7220617070726f7665640000000000000000000000000000006020830152604082019050919050565b6000614906601f836150cd565b91507f5265656e7472616e637947756172643a207265656e7472616e742063616c6c006000830152602082019050919050565b6000614946601c836150cd565b91507f5072696365206d757374206265206174206c65617374203120776569000000006000830152602082019050919050565b60006149866023836150cd565b91507f746f6b656e206d757374206265206578697473206f6e2074686520636f6e747260008301527f61637400000000000000000000000000000000000000000000000000000000006020830152604082019050919050565b6000610120830160008301516149f86000860182614ab2565b5060208301518482036020860152614a1082826141ce565b91505060408301518482036040860152614a2a82826141ce565b9150506060830151614a3f60608601826140d5565b506080830151614a5260808601826140d5565b5060a0830151614a6560a08601826140d5565b5060c0830151614a7860c0860182614ab2565b5060e0830151614a8b60e0860182614177565b50610100830151848203610100860152614aa582826141ce565b9150508091505092915050565b614abb81615220565b82525050565b614aca81615220565b82525050565b6000614adc8284614240565b915081905092915050565b6000614af38285614240565b9150614aff8284614240565b91508190509392505050565b6000602082019050614b2060008301846140f3565b92915050565b6000608082019050614b3b60008301876140f3565b614b4860208301866140f3565b614b556040830185614ac1565b8181036060830152614b678184614195565b905095945050505050565b60006020820190508181036000830152614b8c8184614102565b905092915050565b6000602082019050614ba96000830184614186565b92915050565b60006020820190508181036000830152614bc98184614207565b905092915050565b60006020820190508181036000830152614bea81614271565b9050919050565b60006020820190508181036000830152614c0a816142b1565b9050919050565b60006020820190508181036000830152614c2a81614317565b9050919050565b60006020820190508181036000830152614c4a8161437d565b9050919050565b60006020820190508181036000830152614c6a816143bd565b9050919050565b60006020820190508181036000830152614c8a81614423565b9050919050565b60006020820190508181036000830152614caa81614463565b9050919050565b60006020820190508181036000830152614cca816144c9565b9050919050565b60006020820190508181036000830152614cea8161452f565b9050919050565b60006020820190508181036000830152614d0a81614595565b9050919050565b60006020820190508181036000830152614d2a816145fb565b9050919050565b60006020820190508181036000830152614d4a8161463b565b9050919050565b60006020820190508181036000830152614d6a8161467b565b9050919050565b60006020820190508181036000830152614d8a816146e1565b9050919050565b60006020820190508181036000830152614daa81614721565b9050919050565b60006020820190508181036000830152614dca81614787565b9050919050565b60006020820190508181036000830152614dea816147ed565b9050919050565b60006020820190508181036000830152614e0a81614853565b9050919050565b60006020820190508181036000830152614e2a81614893565b9050919050565b60006020820190508181036000830152614e4a816148f9565b9050919050565b60006020820190508181036000830152614e6a81614939565b9050919050565b60006020820190508181036000830152614e8a81614979565b9050919050565b6000602082019050614ea66000830184614ac1565b92915050565b600060e082019050614ec1600083018a614ac1565b8181036020830152614ed38189614207565b90508181036040830152614ee78188614207565b9050614ef660608301876140e4565b614f0360808301866140e4565b614f1060a08301856140e4565b614f1d60c0830184614ac1565b98975050505050505050565b600061012082019050614f3f600083018c614ac1565b8181036020830152614f51818b614207565b90508181036040830152614f65818a614207565b9050614f7460608301896140e4565b614f8160808301886140e4565b614f8e60a08301876140e4565b614f9b60c0830186614ac1565b614fa860e0830185614186565b818103610100830152614fbb8184614207565b90509a9950505050505050505050565b6000604051905081810181811067ffffffffffffffff82111715614ff257614ff16153a5565b5b8060405250919050565b600067ffffffffffffffff821115615017576150166153a5565b5b601f19601f8301169050602081019050919050565b600067ffffffffffffffff821115615047576150466153a5565b5b601f19601f8301169050602081019050919050565b6000819050602082019050919050565b600081519050919050565b600081519050919050565b600081519050919050565b6000602082019050919050565b600082825260208201905092915050565b600082825260208201905092915050565b600082825260208201905092915050565b600082825260208201905092915050565b600081905092915050565b60006150f482615220565b91506150ff83615220565b9250827fffffffffffffffffffffffffffffffffffffffffffffffffffffffffffffffff0382111561513457615133615318565b5b828201905092915050565b600061514a82615220565b915061515583615220565b92508261516557615164615347565b5b828204905092915050565b600061517b82615220565b915061518683615220565b92508282101561519957615198615318565b5b828203905092915050565b60006151af82615200565b9050919050565b60006151c182615200565b9050919050565b60008115159050919050565b60007fffffffff0000000000000000000000000000000000000000000000000000000082169050919050565b600073ffffffffffffffffffffffffffffffffffffffff82169050919050565b6000819050919050565b82818337600083830152505050565b60005b8381101561525757808201518184015260208101905061523c565b83811115615266576000848401525b50505050565b6000600282049050600182168061528457607f821691505b6020821081141561529857615297615376565b5b50919050565b60006152a982615220565b91507fffffffffffffffffffffffffffffffffffffffffffffffffffffffffffffffff8214156152dc576152db615318565b5b600182019050919050565b60006152f282615220565b91506152fd83615220565b92508261530d5761530c615347565b5b828206905092915050565b7f4e487b7100000000000000000000000000000000000000000000000000000000600052601160045260246000fd5b7f4e487b7100000000000000000000000000000000000000000000000000000000600052601260045260246000fd5b7f4e487b7100000000000000000000000000000000000000000000000000000000600052602260045260246000fd5b7f4e487b7100000000000000000000000000000000000000000000000000000000600052604160045260246000fd5b6000601f19601f8301169050919050565b6153ee816151a4565b81146153f957600080fd5b50565b615405816151c8565b811461541057600080fd5b50565b61541c816151d4565b811461542757600080fd5b50565b61543381615220565b811461543e57600080fd5b5056fea2646970667358221220d25df6c01b4214a8083d34ac4cfa17783f46753594e26cf403fdd5a4c4dbc81664736f6c63430008000033476f7674206f6620496e646961202043727970746f73746174652020506f726174616c",
  "immutableReferences": {},
  "source": "// SPDX-License-Identifier: MIT\npragma solidity ^0.8.0;\nimport \"@openzeppelin/contracts/utils/Counters.sol\";\nimport \"@openzeppelin/contracts/security/ReentrancyGuard.sol\";\nimport \"@openzeppelin/contracts/token/ERC721/ERC721.sol\";\nimport \"@openzeppelin/contracts/access/Ownable.sol\";\n\ncontract CryptoState is ERC721, Ownable, ReentrancyGuard {\n    using Counters for Counters.Counter;\n\n    string public nameOf = \"Govt of India  Cryptostate  Poratal\";\n\n    // this is contract's token collection name\n    string public collectionName;\n    // this is the contract's token symbol\n    string public collectionNameSymbol;\n\n    // total number of collection that to be created\n    Counters.Counter private cryptoStateCouter;\n    //listing price\n    uint256 listingPrice = 0.1 ether;\n\n    struct CryptoState {\n        uint256 tokenId;\n        string tokenName;\n        string tokenURI;\n        address payable mintedBy;\n        address payable currentOwner;\n        address payable perviousOwner;\n        uint256 price;\n        bool forSale;\n        string placeAddress;\n    }\n    event CryptoStateItemCreate(\n        uint256 tokenId,\n        string tokenName,\n        string tokenURI,\n        address payable mintedBy,\n        address payable currentowner,\n        address payable oldowenr,\n        uint256 price\n    );\n    // map cryptoStata's token id to cryptostate\n    mapping(uint256 => CryptoState) public allCryptostate;\n    // token validation\n    mapping(string => bool) private tokenNameExists;\n    //check if the token URI exists\n    mapping(string => bool) private tokenURIExists;\n\n    constructor() ERC721(\"CryptoState\", \"IND\") {\n        collectionName = name();\n        collectionNameSymbol = symbol();\n    }\n// this function is used to transfer ether to govt account\n function withdraw() public payable onlyOwner {\n        address payable _owner = payable(owner());\n        _owner.transfer(address(this).balance);\n    }\n    // create new cryptostate\n    // Creation\n\n    function mintCryptoState(\n        string memory _name,\n        string memory _tokenURI,\n        uint256 _price,\n        string memory _placeAddress,\n        address _owner,\n        bool _forSell\n    ) public payable onlyOwner nonReentrant {\n        // address should to be valide\n        require(msg.sender != address(0));\n        // price must be grater then 0\n        require(_price > 0, \"Price must be at least 1 wei\");\n        // listing price should to be equal\n        // require(\n        //     msg.value >= listingPrice,\n        //     \"Price must be equal to listing price\"\n        // );\n\n        //token URI must be uniqe\n        require(!tokenURIExists[_tokenURI]);\n        // token name must be uniqe\n        require(!tokenNameExists[_name]);\n        // increament the counter of cryptostate\n        cryptoStateCouter.increment();\n        //getting the current count\n        uint256 tokenId = cryptoStateCouter.current();\n        // mint the token\n        _mint(_owner, tokenId);\n        // set token URI (bind token id with the passed in token URI)\n        // _setTokenURI(tokenId, _tokenURI);\n        tokenURIExists[_tokenURI] = true;\n        tokenNameExists[_name] = true;\n        // creat a new crypto state (struct) and pass in new values\n        CryptoState memory newCryptoState = CryptoState(\n            tokenId,\n            _name,\n            _tokenURI,\n            payable(msg.sender),\n            payable(_owner),\n            payable(address(0)),\n            _price,\n            _forSell,\n            _placeAddress\n        );\n        // adding to the allCrypto state array\n        allCryptostate[tokenId] = newCryptoState;\n        // emit event\n        emit CryptoStateItemCreate(\n            tokenId,\n            _name,\n            _tokenURI,\n            payable(msg.sender),\n            payable(_owner),\n            payable(address(0)),\n            _price\n        );\n    }\n\n    //getting the pricing list\n    function getListingPrice() public view returns (uint256) {\n        return listingPrice;\n    }\n\n    // get owner of the token\n    function getTokenOwner(uint256 _tokenId) public view returns (address) {\n        address _tokenOwer = ownerOf(_tokenId);\n        return _tokenOwer;\n    }\n\n    // to feel after sometime\n    function getTokenMetadata(uint256 _tokenId)\n        public\n        view\n        returns (string memory)\n    {\n    string memory tokenMetaData = tokenURI(_tokenId);\n    return tokenMetaData;\n    }\n\n    // get the number of token that created till the function is called\n    function getNumberOfTokensMinted() public view returns (uint256) {\n        uint256 totalNumberofTokensMinted = cryptoStateCouter.current();\n        return totalNumberofTokensMinted;\n    }\n\n    // get the number of the token owned by the  caller of the function\n    function TokenownedByaddress(address _owner) public view returns (uint256) {\n        uint256 totalNumberofTokensowned = balanceOf(_owner);\n        return totalNumberofTokensowned;\n    }\n\n    // returns if some token is exits or not\n    function getTokenExists(uint256 _tokenId) public view returns (bool) {\n        bool tokenExists = _exists(_tokenId);\n        return tokenExists;\n    }\n\n    // buy the Cryptostate\n    function buyToken(uint256 _tokenId) public payable {\n        require(msg.sender != address(0), \"address must not be null\");\n        // token it must be exits\n        require(_exists(_tokenId), \"token must be exits on the contract\");\n        // get the owner of the token\n        address tokenOnwer = ownerOf(_tokenId);\n        // we can not buy over own token\n        require(msg.sender != tokenOnwer, \"you can not buy your own token\");\n        // getting token form the block chain\n        CryptoState memory cryptostate = allCryptostate[_tokenId];\n        // the price must be equal to or greater then\n        require(\n            msg.value >= cryptostate.price,\n            \"please Enter full price to buy\"\n        );\n        // it must be marked as for sale\n        require(cryptostate.forSale);\n\n        // tansfer the owner ship\n        _transfer(tokenOnwer, msg.sender, _tokenId);\n        // getting the current owner of the smart contract\n        address payable sendTo = cryptostate.currentOwner;\n        // sending the token worth to the owner of the  token\n        sendTo.transfer(msg.value);\n        //update  pervious owner\n        cryptostate.perviousOwner = cryptostate.currentOwner;\n        // update the current owner\n        cryptostate.currentOwner = payable(msg.sender);\n\n        // set and update the data of token\n        allCryptostate[_tokenId] = cryptostate;\n    }\n\n    // change the price oft the token\n    function changeTokenPrice(uint256 _tokenId, uint256 _newPrice)\n        public\n        payable\n    {\n        // address must not be empty\n        require(msg.sender != address(0));\n\n        require(msg.value >= listingPrice);\n\n        address tokenOnwer = ownerOf(_tokenId);\n\n        require(tokenOnwer == msg.sender);\n\n        CryptoState memory cryptostate = allCryptostate[_tokenId];\n        //update the price\n        cryptostate.price = _newPrice;\n    }\n\n    function toggleForSale(uint256 _tokenId) public payable {\n        require(msg.sender != address(0));\n        // require caller of the function is not an empty address\n        // require that token should exist\n        require(_exists(_tokenId));\n        // get the token's owner\n        address tokenOwner = ownerOf(_tokenId);\n        // check that token's owner should be equal to the caller of the function\n        require(tokenOwner == msg.sender);\n        // get that token from all crypto boys mapping and create a memory of it defined as (struct => CryptoBoy)\n\n        CryptoState memory cryptostate = allCryptostate[_tokenId];\n\n        if (cryptostate.forSale) {\n            cryptostate.forSale = false;\n        } else {\n            cryptostate.forSale = true;\n        }\n        // set and update that token in the mapping\n        allCryptostate[_tokenId] = cryptostate;\n    }\n    // get all the sold proudct\n    // we can do for this at front end\n    // fetch my own NFT we can do for it on front-end\n    // get all data \n    function getAlldataofUser()public view  returns( CryptoState [] memory ) {\n        uint256 numberofToken = cryptoStateCouter.current();\n         CryptoState [] memory items = new CryptoState[](numberofToken);\n    uint currentIndex = 0;\n    for (uint i = 0; i < numberofToken; i++) {\n        uint currentId = i + 1;\n         CryptoState storage currentItem = allCryptostate[currentId];\n        items[currentIndex] = currentItem;\n        currentIndex += 1;\n    }\n    return items;\n\n    }\n}\n",
  "sourcePath": "/home/akhilesh/Desktop/block_chain_flow/Hackcbs_Nullpointer/cryptostate/src/contracts/CryptoState.sol",
  "compiler": {
    "name": "solc",
    "version": "0.8.0+commit.c7dfd78e.Emscripten.clang"
  },
  "schemaVersion": "3.4.3",
  "updatedAt": "2021-10-30T17:01:26.714Z",
  "networkType": "ethereum",
  "devdoc": {
    "kind": "dev",
    "methods": {
      "approve(address,uint256)": {
        "details": "See {IERC721-approve}."
      },
      "balanceOf(address)": {
        "details": "See {IERC721-balanceOf}."
      },
      "getApproved(uint256)": {
        "details": "See {IERC721-getApproved}."
      },
      "isApprovedForAll(address,address)": {
        "details": "See {IERC721-isApprovedForAll}."
      },
      "name()": {
        "details": "See {IERC721Metadata-name}."
      },
      "owner()": {
        "details": "Returns the address of the current owner."
      },
      "ownerOf(uint256)": {
        "details": "See {IERC721-ownerOf}."
      },
      "renounceOwnership()": {
        "details": "Leaves the contract without owner. It will not be possible to call `onlyOwner` functions anymore. Can only be called by the current owner. NOTE: Renouncing ownership will leave the contract without an owner, thereby removing any functionality that is only available to the owner."
      },
      "safeTransferFrom(address,address,uint256)": {
        "details": "See {IERC721-safeTransferFrom}."
      },
      "safeTransferFrom(address,address,uint256,bytes)": {
        "details": "See {IERC721-safeTransferFrom}."
      },
      "setApprovalForAll(address,bool)": {
        "details": "See {IERC721-setApprovalForAll}."
      },
      "supportsInterface(bytes4)": {
        "details": "See {IERC165-supportsInterface}."
      },
      "symbol()": {
        "details": "See {IERC721Metadata-symbol}."
      },
      "tokenURI(uint256)": {
        "details": "See {IERC721Metadata-tokenURI}."
      },
      "transferFrom(address,address,uint256)": {
        "details": "See {IERC721-transferFrom}."
      },
      "transferOwnership(address)": {
        "details": "Transfers ownership of the contract to a new account (`newOwner`). Can only be called by the current owner."
      }
    },
    "version": 1
  },
  "userdoc": {
    "kind": "user",
    "methods": {},
    "version": 1
  }
}