{
  "contractName": "CryptoState",
  "abi": [
    {
      "inputs": [],
      "stateMutability": "nonpayable",
      "type": "constructor"
    },
    {
      "anonymous": false,
      "inputs": [
        {
          "indexed": true,
          "internalType": "address",
          "name": "owner",
          "type": "address"
        },
        {
          "indexed": true,
          "internalType": "address",
          "name": "approved",
          "type": "address"
        },
        {
          "indexed": true,
          "internalType": "uint256",
          "name": "tokenId",
          "type": "uint256"
        }
      ],
      "name": "Approval",
      "type": "event"
    },
    {
      "anonymous": false,
      "inputs": [
        {
          "indexed": true,
          "internalType": "address",
          "name": "owner",
          "type": "address"
        },
        {
          "indexed": true,
          "internalType": "address",
          "name": "operator",
          "type": "address"
        },
        {
          "indexed": false,
          "internalType": "bool",
          "name": "approved",
          "type": "bool"
        }
      ],
      "name": "ApprovalForAll",
      "type": "event"
    },
    {
      "anonymous": false,
      "inputs": [
        {
          "indexed": false,
          "internalType": "uint256",
          "name": "tokenId",
          "type": "uint256"
        },
        {
          "indexed": false,
          "internalType": "string",
          "name": "tokenName",
          "type": "string"
        },
        {
          "indexed": false,
          "internalType": "string",
          "name": "tokenURI",
          "type": "string"
        },
        {
          "indexed": false,
          "internalType": "address payable",
          "name": "mintedBy",
          "type": "address"
        },
        {
          "indexed": false,
          "internalType": "address payable",
          "name": "currentowner",
          "type": "address"
        },
        {
          "indexed": false,
          "internalType": "address payable",
          "name": "oldowenr",
          "type": "address"
        },
        {
          "indexed": false,
          "internalType": "uint256",
          "name": "price",
          "type": "uint256"
        }
      ],
      "name": "CryptoStateItemCreate",
      "type": "event"
    },
    {
      "anonymous": false,
      "inputs": [
        {
          "indexed": true,
          "internalType": "address",
          "name": "previousOwner",
          "type": "address"
        },
        {
          "indexed": true,
          "internalType": "address",
          "name": "newOwner",
          "type": "address"
        }
      ],
      "name": "OwnershipTransferred",
      "type": "event"
    },
    {
      "anonymous": false,
      "inputs": [
        {
          "indexed": true,
          "internalType": "address",
          "name": "from",
          "type": "address"
        },
        {
          "indexed": true,
          "internalType": "address",
          "name": "to",
          "type": "address"
        },
        {
          "indexed": true,
          "internalType": "uint256",
          "name": "tokenId",
          "type": "uint256"
        }
      ],
      "name": "Transfer",
      "type": "event"
    },
    {
      "inputs": [
        {
          "internalType": "uint256",
          "name": "",
          "type": "uint256"
        }
      ],
      "name": "allCryptostate",
      "outputs": [
        {
          "internalType": "uint256",
          "name": "tokenId",
          "type": "uint256"
        },
        {
          "internalType": "string",
          "name": "tokenName",
          "type": "string"
        },
        {
          "internalType": "string",
          "name": "tokenURI",
          "type": "string"
        },
        {
          "internalType": "address payable",
          "name": "mintedBy",
          "type": "address"
        },
        {
          "internalType": "address payable",
          "name": "currentOwner",
          "type": "address"
        },
        {
          "internalType": "address payable",
          "name": "perviousOwner",
          "type": "address"
        },
        {
          "internalType": "uint256",
          "name": "price",
          "type": "uint256"
        },
        {
          "internalType": "bool",
          "name": "forSale",
          "type": "bool"
        },
        {
          "internalType": "string",
          "name": "placeAddress",
          "type": "string"
        }
      ],
      "stateMutability": "view",
      "type": "function",
      "constant": true
    },
    {
      "inputs": [
        {
          "internalType": "address",
          "name": "to",
          "type": "address"
        },
        {
          "internalType": "uint256",
          "name": "tokenId",
          "type": "uint256"
        }
      ],
      "name": "approve",
      "outputs": [],
      "stateMutability": "nonpayable",
      "type": "function"
    },
    {
      "inputs": [
        {
          "internalType": "address",
          "name": "owner",
          "type": "address"
        }
      ],
      "name": "balanceOf",
      "outputs": [
        {
          "internalType": "uint256",
          "name": "",
          "type": "uint256"
        }
      ],
      "stateMutability": "view",
      "type": "function",
      "constant": true
    },
    {
      "inputs": [],
      "name": "collectionName",
      "outputs": [
        {
          "internalType": "string",
          "name": "",
          "type": "string"
        }
      ],
      "stateMutability": "view",
      "type": "function",
      "constant": true
    },
    {
      "inputs": [],
      "name": "collectionNameSymbol",
      "outputs": [
        {
          "internalType": "string",
          "name": "",
          "type": "string"
        }
      ],
      "stateMutability": "view",
      "type": "function",
      "constant": true
    },
    {
      "inputs": [
        {
          "internalType": "uint256",
          "name": "tokenId",
          "type": "uint256"
        }
      ],
      "name": "getApproved",
      "outputs": [
        {
          "internalType": "address",
          "name": "",
          "type": "address"
        }
      ],
      "stateMutability": "view",
      "type": "function",
      "constant": true
    },
    {
      "inputs": [
        {
          "internalType": "address",
          "name": "owner",
          "type": "address"
        },
        {
          "internalType": "address",
          "name": "operator",
          "type": "address"
        }
      ],
      "name": "isApprovedForAll",
      "outputs": [
        {
          "internalType": "bool",
          "name": "",
          "type": "bool"
        }
      ],
      "stateMutability": "view",
      "type": "function",
      "constant": true
    },
    {
      "inputs": [],
      "name": "name",
      "outputs": [
        {
          "internalType": "string",
          "name": "",
          "type": "string"
        }
      ],
      "stateMutability": "view",
      "type": "function",
      "constant": true
    },
    {
      "inputs": [],
      "name": "nameOf",
      "outputs": [
        {
          "internalType": "string",
          "name": "",
          "type": "string"
        }
      ],
      "stateMutability": "view",
      "type": "function",
      "constant": true
    },
    {
      "inputs": [],
      "name": "owner",
      "outputs": [
        {
          "internalType": "address",
          "name": "",
          "type": "address"
        }
      ],
      "stateMutability": "view",
      "type": "function",
      "constant": true
    },
    {
      "inputs": [
        {
          "internalType": "uint256",
          "name": "tokenId",
          "type": "uint256"
        }
      ],
      "name": "ownerOf",
      "outputs": [
        {
          "internalType": "address",
          "name": "",
          "type": "address"
        }
      ],
      "stateMutability": "view",
      "type": "function",
      "constant": true
    },
    {
      "inputs": [],
      "name": "renounceOwnership",
      "outputs": [],
      "stateMutability": "nonpayable",
      "type": "function"
    },
    {
      "inputs": [
        {
          "internalType": "address",
          "name": "from",
          "type": "address"
        },
        {
          "internalType": "address",
          "name": "to",
          "type": "address"
        },
        {
          "internalType": "uint256",
          "name": "tokenId",
          "type": "uint256"
        }
      ],
      "name": "safeTransferFrom",
      "outputs": [],
      "stateMutability": "nonpayable",
      "type": "function"
    },
    {
      "inputs": [
        {
          "internalType": "address",
          "name": "from",
          "type": "address"
        },
        {
          "internalType": "address",
          "name": "to",
          "type": "address"
        },
        {
          "internalType": "uint256",
          "name": "tokenId",
          "type": "uint256"
        },
        {
          "internalType": "bytes",
          "name": "_data",
          "type": "bytes"
        }
      ],
      "name": "safeTransferFrom",
      "outputs": [],
      "stateMutability": "nonpayable",
      "type": "function"
    },
    {
      "inputs": [
        {
          "internalType": "address",
          "name": "operator",
          "type": "address"
        },
        {
          "internalType": "bool",
          "name": "approved",
          "type": "bool"
        }
      ],
      "name": "setApprovalForAll",
      "outputs": [],
      "stateMutability": "nonpayable",
      "type": "function"
    },
    {
      "inputs": [
        {
          "internalType": "bytes4",
          "name": "interfaceId",
          "type": "bytes4"
        }
      ],
      "name": "supportsInterface",
      "outputs": [
        {
          "internalType": "bool",
          "name": "",
          "type": "bool"
        }
      ],
      "stateMutability": "view",
      "type": "function",
      "constant": true
    },
    {
      "inputs": [],
      "name": "symbol",
      "outputs": [
        {
          "internalType": "string",
          "name": "",
          "type": "string"
        }
      ],
      "stateMutability": "view",
      "type": "function",
      "constant": true
    },
    {
      "inputs": [
        {
          "internalType": "uint256",
          "name": "tokenId",
          "type": "uint256"
        }
      ],
      "name": "tokenURI",
      "outputs": [
        {
          "internalType": "string",
          "name": "",
          "type": "string"
        }
      ],
      "stateMutability": "view",
      "type": "function",
      "constant": true
    },
    {
      "inputs": [
        {
          "internalType": "address",
          "name": "from",
          "type": "address"
        },
        {
          "internalType": "address",
          "name": "to",
          "type": "address"
        },
        {
          "internalType": "uint256",
          "name": "tokenId",
          "type": "uint256"
        }
      ],
      "name": "transferFrom",
      "outputs": [],
      "stateMutability": "nonpayable",
      "type": "function"
    },
    {
      "inputs": [
        {
          "internalType": "address",
          "name": "newOwner",
          "type": "address"
        }
      ],
      "name": "transferOwnership",
      "outputs": [],
      "stateMutability": "nonpayable",
      "type": "function"
    },
    {
      "inputs": [],
      "name": "withdraw",
      "outputs": [],
      "stateMutability": "payable",
      "type": "function",
      "payable": true
    },
    {
      "inputs": [
        {
          "internalType": "string",
          "name": "_name",
          "type": "string"
        },
        {
          "internalType": "string",
          "name": "_tokenURI",
          "type": "string"
        },
        {
          "internalType": "uint256",
          "name": "_price",
          "type": "uint256"
        },
        {
          "internalType": "string",
          "name": "_placeAddress",
          "type": "string"
        },
        {
          "internalType": "address",
          "name": "_owner",
          "type": "address"
        },
        {
          "internalType": "bool",
          "name": "_forSell",
          "type": "bool"
        }
      ],
      "name": "mintCryptoState",
      "outputs": [],
      "stateMutability": "payable",
      "type": "function",
      "payable": true
    }
  ],
  "bytecode": "0x608060405260405180606001604052806023815260200162003e4960239139600890805190602001906200003592919062000370565b5067016345785d8a0000600c553480156200004f57600080fd5b506040518060400160405280600b81526020017f43727970746f53746174650000000000000000000000000000000000000000008152506040518060400160405280600381526020017f494e4400000000000000000000000000000000000000000000000000000000008152508160009080519060200190620000d492919062000370565b508060019080519060200190620000ed92919062000370565b50505062000110620001046200016e60201b60201c565b6200017660201b60201c565b6001600781905550620001286200023c60201b60201c565b600990805190602001906200013f92919062000370565b5062000150620002d660201b60201c565b600a90805190602001906200016792919062000370565b5062000485565b600033905090565b6000600660009054906101000a900473ffffffffffffffffffffffffffffffffffffffff16905081600660006101000a81548173ffffffffffffffffffffffffffffffffffffffff021916908373ffffffffffffffffffffffffffffffffffffffff1602179055508173ffffffffffffffffffffffffffffffffffffffff168173ffffffffffffffffffffffffffffffffffffffff167f8be0079c531659141344cd1fd0a4f28419497f9722a3daafe3b4186f6b6457e060405160405180910390a35050565b6060600080546200024d9062000420565b80601f01602080910402602001604051908101604052809291908181526020018280546200027b9062000420565b8015620002cc5780601f10620002a057610100808354040283529160200191620002cc565b820191906000526020600020905b815481529060010190602001808311620002ae57829003601f168201915b5050505050905090565b606060018054620002e79062000420565b80601f0160208091040260200160405190810160405280929190818152602001828054620003159062000420565b8015620003665780601f106200033a5761010080835404028352916020019162000366565b820191906000526020600020905b8154815290600101906020018083116200034857829003601f168201915b5050505050905090565b8280546200037e9062000420565b90600052602060002090601f016020900481019282620003a25760008555620003ee565b82601f10620003bd57805160ff1916838001178555620003ee565b82800160010185558215620003ee579182015b82811115620003ed578251825591602001919060010190620003d0565b5b509050620003fd919062000401565b5090565b5b808211156200041c57600081600090555060010162000402565b5090565b600060028204905060018216806200043957607f821691505b6020821081141562000450576200044f62000456565b5b50919050565b7f4e487b7100000000000000000000000000000000000000000000000000000000600052602260045260246000fd5b6139b480620004956000396000f3fe6080604052600436106101355760003560e01c80638da5cb5b116100ab578063c87b56dd1161006f578063c87b56dd146103f3578063d07dee8414610430578063e5326ab114610475578063e985e9c5146104a0578063ed5de8e8146104dd578063f2fde38b146104f957610135565b80638da5cb5b1461032057806395d89b411461034b578063a22cb46514610376578063b88d4fde1461039f578063b8ec91d3146103c857610135565b80633ccfd60b116100fd5780633ccfd60b1461023157806342842e0e1461023b5780636352211e146102645780636f9507f9146102a157806370a08231146102cc578063715018a61461030957610135565b806301ffc9a71461013a57806306fdde0314610177578063081812fc146101a2578063095ea7b3146101df57806323b872dd14610208575b600080fd5b34801561014657600080fd5b50610161600480360381019061015c9190612800565b610522565b60405161016e919061317b565b60405180910390f35b34801561018357600080fd5b5061018c610604565b6040516101999190613196565b60405180910390f35b3480156101ae57600080fd5b506101c960048036038101906101c49190612923565b610696565b6040516101d69190613114565b60405180910390f35b3480156101eb57600080fd5b50610206600480360381019061020191906127c4565b61071b565b005b34801561021457600080fd5b5061022f600480360381019061022a91906126be565b610833565b005b610239610893565b005b34801561024757600080fd5b50610262600480360381019061025d91906126be565b610965565b005b34801561027057600080fd5b5061028b60048036038101906102869190612923565b610985565b6040516102989190613114565b60405180910390f35b3480156102ad57600080fd5b506102b6610a37565b6040516102c39190613196565b60405180910390f35b3480156102d857600080fd5b506102f360048036038101906102ee9190612659565b610ac5565b6040516103009190613418565b60405180910390f35b34801561031557600080fd5b5061031e610b7d565b005b34801561032c57600080fd5b50610335610c05565b6040516103429190613114565b60405180910390f35b34801561035757600080fd5b50610360610c2f565b60405161036d9190613196565b60405180910390f35b34801561038257600080fd5b5061039d60048036038101906103989190612788565b610cc1565b005b3480156103ab57600080fd5b506103c660048036038101906103c1919061270d565b610e42565b005b3480156103d457600080fd5b506103dd610ea4565b6040516103ea9190613196565b60405180910390f35b3480156103ff57600080fd5b5061041a60048036038101906104159190612923565b610f32565b6040516104279190613196565b60405180910390f35b34801561043c57600080fd5b5061045760048036038101906104529190612923565b610fd9565b60405161046c999897969594939291906134b0565b60405180910390f35b34801561048157600080fd5b5061048a61122c565b6040516104979190613196565b60405180910390f35b3480156104ac57600080fd5b506104c760048036038101906104c29190612682565b6112ba565b6040516104d4919061317b565b60405180910390f35b6104f760048036038101906104f29190612852565b61134e565b005b34801561050557600080fd5b50610520600480360381019061051b9190612659565b61182d565b005b60007f80ac58cd000000000000000000000000000000000000000000000000000000007bffffffffffffffffffffffffffffffffffffffffffffffffffffffff1916827bffffffffffffffffffffffffffffffffffffffffffffffffffffffff191614806105ed57507f5b5e139f000000000000000000000000000000000000000000000000000000007bffffffffffffffffffffffffffffffffffffffffffffffffffffffff1916827bffffffffffffffffffffffffffffffffffffffffffffffffffffffff1916145b806105fd57506105fc82611925565b5b9050919050565b606060008054610613906137a9565b80601f016020809104026020016040519081016040528092919081815260200182805461063f906137a9565b801561068c5780601f106106615761010080835404028352916020019161068c565b820191906000526020600020905b81548152906001019060200180831161066f57829003601f168201915b5050505050905090565b60006106a18261198f565b6106e0576040517f08c379a00000000000000000000000000000000000000000000000000000000081526004016106d7906132f8565b60405180910390fd5b6004600083815260200190815260200160002060009054906101000a900473ffffffffffffffffffffffffffffffffffffffff169050919050565b600061072682610985565b90508073ffffffffffffffffffffffffffffffffffffffff168373ffffffffffffffffffffffffffffffffffffffff161415610797576040517f08c379a000000000000000000000000000000000000000000000000000000000815260040161078e90613378565b60405180910390fd5b8073ffffffffffffffffffffffffffffffffffffffff166107b66119fb565b73ffffffffffffffffffffffffffffffffffffffff1614806107e557506107e4816107df6119fb565b6112ba565b5b610824576040517f08c379a000000000000000000000000000000000000000000000000000000000815260040161081b90613278565b60405180910390fd5b61082e8383611a03565b505050565b61084461083e6119fb565b82611abc565b610883576040517f08c379a000000000000000000000000000000000000000000000000000000000815260040161087a906133b8565b60405180910390fd5b61088e838383611b9a565b505050565b61089b6119fb565b73ffffffffffffffffffffffffffffffffffffffff166108b9610c05565b73ffffffffffffffffffffffffffffffffffffffff161461090f576040517f08c379a000000000000000000000000000000000000000000000000000000000815260040161090690613318565b60405180910390fd5b6000610919610c05565b90508073ffffffffffffffffffffffffffffffffffffffff166108fc479081150290604051600060405180830381858888f19350505050158015610961573d6000803e3d6000fd5b5050565b61098083838360405180602001604052806000815250610e42565b505050565b6000806002600084815260200190815260200160002060009054906101000a900473ffffffffffffffffffffffffffffffffffffffff169050600073ffffffffffffffffffffffffffffffffffffffff168173ffffffffffffffffffffffffffffffffffffffff161415610a2e576040517f08c379a0000000000000000000000000000000000000000000000000000000008152600401610a25906132b8565b60405180910390fd5b80915050919050565b600a8054610a44906137a9565b80601f0160208091040260200160405190810160405280929190818152602001828054610a70906137a9565b8015610abd5780601f10610a9257610100808354040283529160200191610abd565b820191906000526020600020905b815481529060010190602001808311610aa057829003601f168201915b505050505081565b60008073ffffffffffffffffffffffffffffffffffffffff168273ffffffffffffffffffffffffffffffffffffffff161415610b36576040517f08c379a0000000000000000000000000000000000000000000000000000000008152600401610b2d90613298565b60405180910390fd5b600360008373ffffffffffffffffffffffffffffffffffffffff1673ffffffffffffffffffffffffffffffffffffffff168152602001908152602001600020549050919050565b610b856119fb565b73ffffffffffffffffffffffffffffffffffffffff16610ba3610c05565b73ffffffffffffffffffffffffffffffffffffffff1614610bf9576040517f08c379a0000000000000000000000000000000000000000000000000000000008152600401610bf090613318565b60405180910390fd5b610c036000611df6565b565b6000600660009054906101000a900473ffffffffffffffffffffffffffffffffffffffff16905090565b606060018054610c3e906137a9565b80601f0160208091040260200160405190810160405280929190818152602001828054610c6a906137a9565b8015610cb75780601f10610c8c57610100808354040283529160200191610cb7565b820191906000526020600020905b815481529060010190602001808311610c9a57829003601f168201915b5050505050905090565b610cc96119fb565b73ffffffffffffffffffffffffffffffffffffffff168273ffffffffffffffffffffffffffffffffffffffff161415610d37576040517f08c379a0000000000000000000000000000000000000000000000000000000008152600401610d2e90613238565b60405180910390fd5b8060056000610d446119fb565b73ffffffffffffffffffffffffffffffffffffffff1673ffffffffffffffffffffffffffffffffffffffff16815260200190815260200160002060008473ffffffffffffffffffffffffffffffffffffffff1673ffffffffffffffffffffffffffffffffffffffff16815260200190815260200160002060006101000a81548160ff0219169083151502179055508173ffffffffffffffffffffffffffffffffffffffff16610df16119fb565b73ffffffffffffffffffffffffffffffffffffffff167f17307eab39ab6107e8899845ad3d59bd9653f200f220920489ca2b5937696c3183604051610e36919061317b565b60405180910390a35050565b610e53610e4d6119fb565b83611abc565b610e92576040517f08c379a0000000000000000000000000000000000000000000000000000000008152600401610e89906133b8565b60405180910390fd5b610e9e84848484611ebc565b50505050565b60088054610eb1906137a9565b80601f0160208091040260200160405190810160405280929190818152602001828054610edd906137a9565b8015610f2a5780601f10610eff57610100808354040283529160200191610f2a565b820191906000526020600020905b815481529060010190602001808311610f0d57829003601f168201915b505050505081565b6060610f3d8261198f565b610f7c576040517f08c379a0000000000000000000000000000000000000000000000000000000008152600401610f7390613358565b60405180910390fd5b6000610f86611f18565b90506000815111610fa65760405180602001604052806000815250610fd1565b80610fb084611f2f565b604051602001610fc19291906130f0565b6040516020818303038152906040525b915050919050565b600d602052806000526040600020600091509050806000015490806001018054611002906137a9565b80601f016020809104026020016040519081016040528092919081815260200182805461102e906137a9565b801561107b5780601f106110505761010080835404028352916020019161107b565b820191906000526020600020905b81548152906001019060200180831161105e57829003601f168201915b505050505090806002018054611090906137a9565b80601f01602080910402602001604051908101604052809291908181526020018280546110bc906137a9565b80156111095780601f106110de57610100808354040283529160200191611109565b820191906000526020600020905b8154815290600101906020018083116110ec57829003601f168201915b5050505050908060030160009054906101000a900473ffffffffffffffffffffffffffffffffffffffff16908060040160009054906101000a900473ffffffffffffffffffffffffffffffffffffffff16908060050160009054906101000a900473ffffffffffffffffffffffffffffffffffffffff16908060060154908060070160009054906101000a900460ff16908060080180546111a9906137a9565b80601f01602080910402602001604051908101604052809291908181526020018280546111d5906137a9565b80156112225780601f106111f757610100808354040283529160200191611222565b820191906000526020600020905b81548152906001019060200180831161120557829003601f168201915b5050505050905089565b60098054611239906137a9565b80601f0160208091040260200160405190810160405280929190818152602001828054611265906137a9565b80156112b25780601f10611287576101008083540402835291602001916112b2565b820191906000526020600020905b81548152906001019060200180831161129557829003601f168201915b505050505081565b6000600560008473ffffffffffffffffffffffffffffffffffffffff1673ffffffffffffffffffffffffffffffffffffffff16815260200190815260200160002060008373ffffffffffffffffffffffffffffffffffffffff1673ffffffffffffffffffffffffffffffffffffffff16815260200190815260200160002060009054906101000a900460ff16905092915050565b6113566119fb565b73ffffffffffffffffffffffffffffffffffffffff16611374610c05565b73ffffffffffffffffffffffffffffffffffffffff16146113ca576040517f08c379a00000000000000000000000000000000000000000000000000000000081526004016113c190613318565b60405180910390fd5b60026007541415611410576040517f08c379a0000000000000000000000000000000000000000000000000000000008152600401611407906133d8565b60405180910390fd5b6002600781905550600073ffffffffffffffffffffffffffffffffffffffff163373ffffffffffffffffffffffffffffffffffffffff16141561145257600080fd5b60008411611495576040517f08c379a000000000000000000000000000000000000000000000000000000000815260040161148c906133f8565b60405180910390fd5b600c543410156114da576040517f08c379a00000000000000000000000000000000000000000000000000000000081526004016114d190613398565b60405180910390fd5b600f856040516114ea91906130d9565b908152602001604051809103902060009054906101000a900460ff161561151057600080fd5b600e8660405161152091906130d9565b908152602001604051809103902060009054906101000a900460ff161561154657600080fd5b611550600b6120dc565b600061155c600b6120f2565b90506115688382612100565b6001600f8760405161157a91906130d9565b908152602001604051809103902060006101000a81548160ff0219169083151502179055506001600e886040516115b191906130d9565b908152602001604051809103902060006101000a81548160ff02191690831515021790555060006040518061012001604052808381526020018981526020018881526020013373ffffffffffffffffffffffffffffffffffffffff1681526020018573ffffffffffffffffffffffffffffffffffffffff168152602001600073ffffffffffffffffffffffffffffffffffffffff168152602001878152602001841515815260200186815250905080600d600084815260200190815260200160002060008201518160000155602082015181600101908051906020019061169992919061247d565b5060408201518160020190805190602001906116b692919061247d565b5060608201518160030160006101000a81548173ffffffffffffffffffffffffffffffffffffffff021916908373ffffffffffffffffffffffffffffffffffffffff16021790555060808201518160040160006101000a81548173ffffffffffffffffffffffffffffffffffffffff021916908373ffffffffffffffffffffffffffffffffffffffff16021790555060a08201518160050160006101000a81548173ffffffffffffffffffffffffffffffffffffffff021916908373ffffffffffffffffffffffffffffffffffffffff16021790555060c0820151816006015560e08201518160070160006101000a81548160ff0219169083151502179055506101008201518160080190805190602001906117d392919061247d565b509050507f7594c44e892ba87814e8387de4cba2d744162afad20ea01e24c7ca2581ad3a0a828989338860008c6040516118139796959493929190613433565b60405180910390a150506001600781905550505050505050565b6118356119fb565b73ffffffffffffffffffffffffffffffffffffffff16611853610c05565b73ffffffffffffffffffffffffffffffffffffffff16146118a9576040517f08c379a00000000000000000000000000000000000000000000000000000000081526004016118a090613318565b60405180910390fd5b600073ffffffffffffffffffffffffffffffffffffffff168173ffffffffffffffffffffffffffffffffffffffff161415611919576040517f08c379a0000000000000000000000000000000000000000000000000000000008152600401611910906131d8565b60405180910390fd5b61192281611df6565b50565b60007f01ffc9a7000000000000000000000000000000000000000000000000000000007bffffffffffffffffffffffffffffffffffffffffffffffffffffffff1916827bffffffffffffffffffffffffffffffffffffffffffffffffffffffff1916149050919050565b60008073ffffffffffffffffffffffffffffffffffffffff166002600084815260200190815260200160002060009054906101000a900473ffffffffffffffffffffffffffffffffffffffff1673ffffffffffffffffffffffffffffffffffffffff1614159050919050565b600033905090565b816004600083815260200190815260200160002060006101000a81548173ffffffffffffffffffffffffffffffffffffffff021916908373ffffffffffffffffffffffffffffffffffffffff160217905550808273ffffffffffffffffffffffffffffffffffffffff16611a7683610985565b73ffffffffffffffffffffffffffffffffffffffff167f8c5be1e5ebec7d5bd14f71427d1e84f3dd0314c0f7b2291e5b200ac8c7c3b92560405160405180910390a45050565b6000611ac78261198f565b611b06576040517f08c379a0000000000000000000000000000000000000000000000000000000008152600401611afd90613258565b60405180910390fd5b6000611b1183610985565b90508073ffffffffffffffffffffffffffffffffffffffff168473ffffffffffffffffffffffffffffffffffffffff161480611b8057508373ffffffffffffffffffffffffffffffffffffffff16611b6884610696565b73ffffffffffffffffffffffffffffffffffffffff16145b80611b915750611b9081856112ba565b5b91505092915050565b8273ffffffffffffffffffffffffffffffffffffffff16611bba82610985565b73ffffffffffffffffffffffffffffffffffffffff1614611c10576040517f08c379a0000000000000000000000000000000000000000000000000000000008152600401611c0790613338565b60405180910390fd5b600073ffffffffffffffffffffffffffffffffffffffff168273ffffffffffffffffffffffffffffffffffffffff161415611c80576040517f08c379a0000000000000000000000000000000000000000000000000000000008152600401611c7790613218565b60405180910390fd5b611c8b8383836122ce565b611c96600082611a03565b6001600360008573ffffffffffffffffffffffffffffffffffffffff1673ffffffffffffffffffffffffffffffffffffffff1681526020019081526020016000206000828254611ce691906136ad565b925050819055506001600360008473ffffffffffffffffffffffffffffffffffffffff1673ffffffffffffffffffffffffffffffffffffffff1681526020019081526020016000206000828254611d3d9190613626565b92505081905550816002600083815260200190815260200160002060006101000a81548173ffffffffffffffffffffffffffffffffffffffff021916908373ffffffffffffffffffffffffffffffffffffffff160217905550808273ffffffffffffffffffffffffffffffffffffffff168473ffffffffffffffffffffffffffffffffffffffff167fddf252ad1be2c89b69c2b068fc378daa952ba7f163c4a11628f55a4df523b3ef60405160405180910390a4505050565b6000600660009054906101000a900473ffffffffffffffffffffffffffffffffffffffff16905081600660006101000a81548173ffffffffffffffffffffffffffffffffffffffff021916908373ffffffffffffffffffffffffffffffffffffffff1602179055508173ffffffffffffffffffffffffffffffffffffffff168173ffffffffffffffffffffffffffffffffffffffff167f8be0079c531659141344cd1fd0a4f28419497f9722a3daafe3b4186f6b6457e060405160405180910390a35050565b611ec7848484611b9a565b611ed3848484846122d3565b611f12576040517f08c379a0000000000000000000000000000000000000000000000000000000008152600401611f09906131b8565b60405180910390fd5b50505050565b606060405180602001604052806000815250905090565b60606000821415611f77576040518060400160405280600181526020017f300000000000000000000000000000000000000000000000000000000000000081525090506120d7565b600082905060005b60008214611fa9578080611f92906137db565b915050600a82611fa2919061367c565b9150611f7f565b60008167ffffffffffffffff811115611feb577f4e487b7100000000000000000000000000000000000000000000000000000000600052604160045260246000fd5b6040519080825280601f01601f19166020018201604052801561201d5781602001600182028036833780820191505090505b5090505b600085146120d05760018261203691906136ad565b9150600a856120459190613824565b60306120519190613626565b60f81b81838151811061208d577f4e487b7100000000000000000000000000000000000000000000000000000000600052603260045260246000fd5b60200101907effffffffffffffffffffffffffffffffffffffffffffffffffffffffffffff1916908160001a905350600a856120c9919061367c565b9450612021565b8093505050505b919050565b6001816000016000828254019250508190555050565b600081600001549050919050565b600073ffffffffffffffffffffffffffffffffffffffff168273ffffffffffffffffffffffffffffffffffffffff161415612170576040517f08c379a0000000000000000000000000000000000000000000000000000000008152600401612167906132d8565b60405180910390fd5b6121798161198f565b156121b9576040517f08c379a00000000000000000000000000000000000000000000000000000000081526004016121b0906131f8565b60405180910390fd5b6121c5600083836122ce565b6001600360008473ffffffffffffffffffffffffffffffffffffffff1673ffffffffffffffffffffffffffffffffffffffff16815260200190815260200160002060008282546122159190613626565b92505081905550816002600083815260200190815260200160002060006101000a81548173ffffffffffffffffffffffffffffffffffffffff021916908373ffffffffffffffffffffffffffffffffffffffff160217905550808273ffffffffffffffffffffffffffffffffffffffff16600073ffffffffffffffffffffffffffffffffffffffff167fddf252ad1be2c89b69c2b068fc378daa952ba7f163c4a11628f55a4df523b3ef60405160405180910390a45050565b505050565b60006122f48473ffffffffffffffffffffffffffffffffffffffff1661246a565b1561245d578373ffffffffffffffffffffffffffffffffffffffff1663150b7a0261231d6119fb565b8786866040518563ffffffff1660e01b815260040161233f949392919061312f565b602060405180830381600087803b15801561235957600080fd5b505af192505050801561238a57506040513d601f19601f820116820180604052508101906123879190612829565b60015b61240d573d80600081146123ba576040519150601f19603f3d011682016040523d82523d6000602084013e6123bf565b606091505b50600081511415612405576040517f08c379a00000000000000000000000000000000000000000000000000000000081526004016123fc906131b8565b60405180910390fd5b805181602001fd5b63150b7a0260e01b7bffffffffffffffffffffffffffffffffffffffffffffffffffffffff1916817bffffffffffffffffffffffffffffffffffffffffffffffffffffffff191614915050612462565b600190505b949350505050565b600080823b905060008111915050919050565b828054612489906137a9565b90600052602060002090601f0160209004810192826124ab57600085556124f2565b82601f106124c457805160ff19168380011785556124f2565b828001600101855582156124f2579182015b828111156124f15782518255916020019190600101906124d6565b5b5090506124ff9190612503565b5090565b5b8082111561251c576000816000905550600101612504565b5090565b600061253361252e84613583565b613552565b90508281526020810184848401111561254b57600080fd5b612556848285613767565b509392505050565b600061257161256c846135b3565b613552565b90508281526020810184848401111561258957600080fd5b612594848285613767565b509392505050565b6000813590506125ab81613922565b92915050565b6000813590506125c081613939565b92915050565b6000813590506125d581613950565b92915050565b6000815190506125ea81613950565b92915050565b600082601f83011261260157600080fd5b8135612611848260208601612520565b91505092915050565b600082601f83011261262b57600080fd5b813561263b84826020860161255e565b91505092915050565b60008135905061265381613967565b92915050565b60006020828403121561266b57600080fd5b60006126798482850161259c565b91505092915050565b6000806040838503121561269557600080fd5b60006126a38582860161259c565b92505060206126b48582860161259c565b9150509250929050565b6000806000606084860312156126d357600080fd5b60006126e18682870161259c565b93505060206126f28682870161259c565b925050604061270386828701612644565b9150509250925092565b6000806000806080858703121561272357600080fd5b60006127318782880161259c565b94505060206127428782880161259c565b935050604061275387828801612644565b925050606085013567ffffffffffffffff81111561277057600080fd5b61277c878288016125f0565b91505092959194509250565b6000806040838503121561279b57600080fd5b60006127a98582860161259c565b92505060206127ba858286016125b1565b9150509250929050565b600080604083850312156127d757600080fd5b60006127e58582860161259c565b92505060206127f685828601612644565b9150509250929050565b60006020828403121561281257600080fd5b6000612820848285016125c6565b91505092915050565b60006020828403121561283b57600080fd5b6000612849848285016125db565b91505092915050565b60008060008060008060c0878903121561286b57600080fd5b600087013567ffffffffffffffff81111561288557600080fd5b61289189828a0161261a565b965050602087013567ffffffffffffffff8111156128ae57600080fd5b6128ba89828a0161261a565b95505060406128cb89828a01612644565b945050606087013567ffffffffffffffff8111156128e857600080fd5b6128f489828a0161261a565b935050608061290589828a0161259c565b92505060a061291689828a016125b1565b9150509295509295509295565b60006020828403121561293557600080fd5b600061294384828501612644565b91505092915050565b612955816136f3565b82525050565b612964816136e1565b82525050565b61297381613705565b82525050565b6000612984826135e3565b61298e81856135f9565b935061299e818560208601613776565b6129a781613911565b840191505092915050565b60006129bd826135ee565b6129c7818561360a565b93506129d7818560208601613776565b6129e081613911565b840191505092915050565b60006129f6826135ee565b612a00818561361b565b9350612a10818560208601613776565b80840191505092915050565b6000612a2960328361360a565b91507f4552433732313a207472616e7366657220746f206e6f6e20455243373231526560008301527f63656976657220696d706c656d656e74657200000000000000000000000000006020830152604082019050919050565b6000612a8f60268361360a565b91507f4f776e61626c653a206e6577206f776e657220697320746865207a65726f206160008301527f64647265737300000000000000000000000000000000000000000000000000006020830152604082019050919050565b6000612af5601c8361360a565b91507f4552433732313a20746f6b656e20616c7265616479206d696e746564000000006000830152602082019050919050565b6000612b3560248361360a565b91507f4552433732313a207472616e7366657220746f20746865207a65726f2061646460008301527f72657373000000000000000000000000000000000000000000000000000000006020830152604082019050919050565b6000612b9b60198361360a565b91507f4552433732313a20617070726f766520746f2063616c6c6572000000000000006000830152602082019050919050565b6000612bdb602c8361360a565b91507f4552433732313a206f70657261746f7220717565727920666f72206e6f6e657860008301527f697374656e7420746f6b656e00000000000000000000000000000000000000006020830152604082019050919050565b6000612c4160388361360a565b91507f4552433732313a20617070726f76652063616c6c6572206973206e6f74206f7760008301527f6e6572206e6f7220617070726f76656420666f7220616c6c00000000000000006020830152604082019050919050565b6000612ca7602a8361360a565b91507f4552433732313a2062616c616e636520717565727920666f7220746865207a6560008301527f726f2061646472657373000000000000000000000000000000000000000000006020830152604082019050919050565b6000612d0d60298361360a565b91507f4552433732313a206f776e657220717565727920666f72206e6f6e657869737460008301527f656e7420746f6b656e00000000000000000000000000000000000000000000006020830152604082019050919050565b6000612d7360208361360a565b91507f4552433732313a206d696e7420746f20746865207a65726f20616464726573736000830152602082019050919050565b6000612db3602c8361360a565b91507f4552433732313a20617070726f76656420717565727920666f72206e6f6e657860008301527f697374656e7420746f6b656e00000000000000000000000000000000000000006020830152604082019050919050565b6000612e1960208361360a565b91507f4f776e61626c653a2063616c6c6572206973206e6f7420746865206f776e65726000830152602082019050919050565b6000612e5960298361360a565b91507f4552433732313a207472616e73666572206f6620746f6b656e2074686174206960008301527f73206e6f74206f776e00000000000000000000000000000000000000000000006020830152604082019050919050565b6000612ebf602f8361360a565b91507f4552433732314d657461646174613a2055524920717565727920666f72206e6f60008301527f6e6578697374656e7420746f6b656e00000000000000000000000000000000006020830152604082019050919050565b6000612f2560218361360a565b91507f4552433732313a20617070726f76616c20746f2063757272656e74206f776e6560008301527f72000000000000000000000000000000000000000000000000000000000000006020830152604082019050919050565b6000612f8b60248361360a565b91507f5072696365206d75737420626520657175616c20746f206c697374696e67207060008301527f72696365000000000000000000000000000000000000000000000000000000006020830152604082019050919050565b6000612ff160318361360a565b91507f4552433732313a207472616e736665722063616c6c6572206973206e6f74206f60008301527f776e6572206e6f7220617070726f7665640000000000000000000000000000006020830152604082019050919050565b6000613057601f8361360a565b91507f5265656e7472616e637947756172643a207265656e7472616e742063616c6c006000830152602082019050919050565b6000613097601c8361360a565b91507f5072696365206d757374206265206174206c65617374203120776569000000006000830152602082019050919050565b6130d38161375d565b82525050565b60006130e582846129eb565b915081905092915050565b60006130fc82856129eb565b915061310882846129eb565b91508190509392505050565b6000602082019050613129600083018461295b565b92915050565b6000608082019050613144600083018761295b565b613151602083018661295b565b61315e60408301856130ca565b81810360608301526131708184612979565b905095945050505050565b6000602082019050613190600083018461296a565b92915050565b600060208201905081810360008301526131b081846129b2565b905092915050565b600060208201905081810360008301526131d181612a1c565b9050919050565b600060208201905081810360008301526131f181612a82565b9050919050565b6000602082019050818103600083015261321181612ae8565b9050919050565b6000602082019050818103600083015261323181612b28565b9050919050565b6000602082019050818103600083015261325181612b8e565b9050919050565b6000602082019050818103600083015261327181612bce565b9050919050565b6000602082019050818103600083015261329181612c34565b9050919050565b600060208201905081810360008301526132b181612c9a565b9050919050565b600060208201905081810360008301526132d181612d00565b9050919050565b600060208201905081810360008301526132f181612d66565b9050919050565b6000602082019050818103600083015261331181612da6565b9050919050565b6000602082019050818103600083015261333181612e0c565b9050919050565b6000602082019050818103600083015261335181612e4c565b9050919050565b6000602082019050818103600083015261337181612eb2565b9050919050565b6000602082019050818103600083015261339181612f18565b9050919050565b600060208201905081810360008301526133b181612f7e565b9050919050565b600060208201905081810360008301526133d181612fe4565b9050919050565b600060208201905081810360008301526133f18161304a565b9050919050565b600060208201905081810360008301526134118161308a565b9050919050565b600060208201905061342d60008301846130ca565b92915050565b600060e082019050613448600083018a6130ca565b818103602083015261345a81896129b2565b9050818103604083015261346e81886129b2565b905061347d606083018761294c565b61348a608083018661294c565b61349760a083018561294c565b6134a460c08301846130ca565b98975050505050505050565b6000610120820190506134c6600083018c6130ca565b81810360208301526134d8818b6129b2565b905081810360408301526134ec818a6129b2565b90506134fb606083018961294c565b613508608083018861294c565b61351560a083018761294c565b61352260c08301866130ca565b61352f60e083018561296a565b81810361010083015261354281846129b2565b90509a9950505050505050505050565b6000604051905081810181811067ffffffffffffffff82111715613579576135786138e2565b5b8060405250919050565b600067ffffffffffffffff82111561359e5761359d6138e2565b5b601f19601f8301169050602081019050919050565b600067ffffffffffffffff8211156135ce576135cd6138e2565b5b601f19601f8301169050602081019050919050565b600081519050919050565b600081519050919050565b600082825260208201905092915050565b600082825260208201905092915050565b600081905092915050565b60006136318261375d565b915061363c8361375d565b9250827fffffffffffffffffffffffffffffffffffffffffffffffffffffffffffffffff0382111561367157613670613855565b5b828201905092915050565b60006136878261375d565b91506136928361375d565b9250826136a2576136a1613884565b5b828204905092915050565b60006136b88261375d565b91506136c38361375d565b9250828210156136d6576136d5613855565b5b828203905092915050565b60006136ec8261373d565b9050919050565b60006136fe8261373d565b9050919050565b60008115159050919050565b60007fffffffff0000000000000000000000000000000000000000000000000000000082169050919050565b600073ffffffffffffffffffffffffffffffffffffffff82169050919050565b6000819050919050565b82818337600083830152505050565b60005b83811015613794578082015181840152602081019050613779565b838111156137a3576000848401525b50505050565b600060028204905060018216806137c157607f821691505b602082108114156137d5576137d46138b3565b5b50919050565b60006137e68261375d565b91507fffffffffffffffffffffffffffffffffffffffffffffffffffffffffffffffff82141561381957613818613855565b5b600182019050919050565b600061382f8261375d565b915061383a8361375d565b92508261384a57613849613884565b5b828206905092915050565b7f4e487b7100000000000000000000000000000000000000000000000000000000600052601160045260246000fd5b7f4e487b7100000000000000000000000000000000000000000000000000000000600052601260045260246000fd5b7f4e487b7100000000000000000000000000000000000000000000000000000000600052602260045260246000fd5b7f4e487b7100000000000000000000000000000000000000000000000000000000600052604160045260246000fd5b6000601f19601f8301169050919050565b61392b816136e1565b811461393657600080fd5b50565b61394281613705565b811461394d57600080fd5b50565b61395981613711565b811461396457600080fd5b50565b6139708161375d565b811461397b57600080fd5b5056fea2646970667358221220987cd71e97bb3b2bbe78609b3c96ef05ab4f70fe47dffc91edce25068fddb6a764736f6c63430008000033476f7674206f6620496e646961202043727970746f73746174652020506f726174616c",
  "immutableReferences": {},
  "source": "// SPDX-License-Identifier: MIT\npragma solidity ^0.8.0;\nimport \"@openzeppelin/contracts/utils/Counters.sol\";\nimport \"@openzeppelin/contracts/security/ReentrancyGuard.sol\";\nimport \"@openzeppelin/contracts/token/ERC721/ERC721.sol\";\nimport \"@openzeppelin/contracts/access/Ownable.sol\";\n\ncontract CryptoState is ERC721, Ownable, ReentrancyGuard {\n    using Counters for Counters.Counter;\n\n    string public nameOf = \"Govt of India  Cryptostate  Poratal\";\n\n    // this is contract's token collection name\n    string public collectionName;\n    // this is the contract's token symbol\n    string public collectionNameSymbol;\n\n    // total number of collection that to be created\n    Counters.Counter private cryptoStateCouter;\n    //listing price\n    uint256 listingPrice = 0.1 ether;\n\n    struct CryptoState {\n        uint256 tokenId;\n        string tokenName;\n        string tokenURI;\n        address payable mintedBy;\n        address payable currentOwner;\n        address payable perviousOwner;\n        uint256 price;\n        bool forSale;\n        string placeAddress;\n    }\n    event CryptoStateItemCreate(\n        uint256 tokenId,\n        string tokenName,\n        string tokenURI,\n        address payable mintedBy,\n        address payable currentowner,\n        address payable oldowenr,\n        uint256 price\n    );\n    // map cryptoStata's token id to cryptostate\n    mapping(uint256 => CryptoState) public allCryptostate;\n    // token validation\n    mapping(string => bool) private tokenNameExists;\n    //check if the token URI exists\n    mapping(string => bool) private tokenURIExists;\n\n    constructor() ERC721(\"CryptoState\", \"IND\") {\n        collectionName = name();\n        collectionNameSymbol = symbol();\n    }\n// this function is used to transfer ether to govt account\n function withdraw() public payable onlyOwner {\n        address payable _owner = payable(owner());\n        _owner.transfer(address(this).balance);\n    }\n    // create new cryptostate\n    // Creation\n\n    function mintCryptoState(\n        string memory _name,\n        string memory _tokenURI,\n        uint256 _price,\n        string memory _placeAddress,\n        address _owner,\n        bool _forSell\n    ) public payable onlyOwner nonReentrant {\n        // address should to be valide\n        require(msg.sender != address(0));\n        // price must be grater then 0\n        require(_price > 0, \"Price must be at least 1 wei\");\n        // listing price should to be equal\n        require(\n            msg.value >= listingPrice,\n            \"Price must be equal to listing price\"\n        );\n\n        //token URI must be uniqe\n        require(!tokenURIExists[_tokenURI]);\n        // token name must be uniqe\n        require(!tokenNameExists[_name]);\n        // increament the counter of cryptostate\n        cryptoStateCouter.increment();\n        //getting the current count\n        uint256 tokenId = cryptoStateCouter.current();\n        // mint the token\n        _mint(_owner, tokenId);\n        // set token URI (bind token id with the passed in token URI)\n        // _setTokenURI(tokenId, _tokenURI);\n        tokenURIExists[_tokenURI] = true;\n        tokenNameExists[_name] = true;\n        // creat a new crypto state (struct) and pass in new values\n        CryptoState memory newCryptoState = CryptoState(\n            tokenId,\n            _name,\n            _tokenURI,\n            payable(msg.sender),\n            payable(_owner),\n            payable(address(0)),\n            _price,\n            _forSell,\n            _placeAddress\n        );\n        // adding to the allCrypto state array\n        allCryptostate[tokenId] = newCryptoState;\n        // emit event\n        emit CryptoStateItemCreate(\n            tokenId,\n            _name,\n            _tokenURI,\n            payable(msg.sender),\n            payable(_owner),\n            payable(address(0)),\n            _price\n        );\n    }\n}",
  "sourcePath": "/home/akhilesh/Desktop/block_chain_flow/Hackcbs_Nullpointer/cryptostate/src/contracts/CryptoState.sol",
  "compiler": {
    "name": "solc",
    "version": "0.8.0+commit.c7dfd78e.Emscripten.clang"
  },
  "schemaVersion": "3.4.3",
  "updatedAt": "2021-10-29T17:33:24.431Z",
  "networkType": "ethereum",
  "devdoc": {
    "kind": "dev",
    "methods": {
      "approve(address,uint256)": {
        "details": "See {IERC721-approve}."
      },
      "balanceOf(address)": {
        "details": "See {IERC721-balanceOf}."
      },
      "getApproved(uint256)": {
        "details": "See {IERC721-getApproved}."
      },
      "isApprovedForAll(address,address)": {
        "details": "See {IERC721-isApprovedForAll}."
      },
      "name()": {
        "details": "See {IERC721Metadata-name}."
      },
      "owner()": {
        "details": "Returns the address of the current owner."
      },
      "ownerOf(uint256)": {
        "details": "See {IERC721-ownerOf}."
      },
      "renounceOwnership()": {
        "details": "Leaves the contract without owner. It will not be possible to call `onlyOwner` functions anymore. Can only be called by the current owner. NOTE: Renouncing ownership will leave the contract without an owner, thereby removing any functionality that is only available to the owner."
      },
      "safeTransferFrom(address,address,uint256)": {
        "details": "See {IERC721-safeTransferFrom}."
      },
      "safeTransferFrom(address,address,uint256,bytes)": {
        "details": "See {IERC721-safeTransferFrom}."
      },
      "setApprovalForAll(address,bool)": {
        "details": "See {IERC721-setApprovalForAll}."
      },
      "supportsInterface(bytes4)": {
        "details": "See {IERC165-supportsInterface}."
      },
      "symbol()": {
        "details": "See {IERC721Metadata-symbol}."
      },
      "tokenURI(uint256)": {
        "details": "See {IERC721Metadata-tokenURI}."
      },
      "transferFrom(address,address,uint256)": {
        "details": "See {IERC721-transferFrom}."
      },
      "transferOwnership(address)": {
        "details": "Transfers ownership of the contract to a new account (`newOwner`). Can only be called by the current owner."
      }
    },
    "version": 1
  },
  "userdoc": {
    "kind": "user",
    "methods": {},
    "version": 1
  }
}